{
	"voting.sol": {
		"Voting": {
			"abi": [
				{
					"inputs": [
						{
							"internalType": "string[]",
							"name": "proposalDescriptions",
							"type": "string[]"
						}
					],
					"stateMutability": "nonpayable",
					"type": "constructor"
				},
				{
					"inputs": [],
					"name": "getAllProposals",
					"outputs": [
						{
							"components": [
								{
									"internalType": "string",
									"name": "description",
									"type": "string"
								},
								{
									"internalType": "uint256",
									"name": "voteCount",
									"type": "uint256"
								}
							],
							"internalType": "struct Voting.Proposal[]",
							"name": "",
							"type": "tuple[]"
						}
					],
					"stateMutability": "view",
					"type": "function"
				},
				{
					"inputs": [
						{
							"internalType": "uint256",
							"name": "index",
							"type": "uint256"
						}
					],
					"name": "getProposal",
					"outputs": [
						{
							"internalType": "string",
							"name": "description",
							"type": "string"
						},
						{
							"internalType": "uint256",
							"name": "voteCount",
							"type": "uint256"
						}
					],
					"stateMutability": "view",
					"type": "function"
				},
				{
					"inputs": [
						{
							"internalType": "address",
							"name": "",
							"type": "address"
						}
					],
					"name": "hasVoted",
					"outputs": [
						{
							"internalType": "bool",
							"name": "",
							"type": "bool"
						}
					],
					"stateMutability": "view",
					"type": "function"
				},
				{
					"inputs": [
						{
							"internalType": "uint256",
							"name": "",
							"type": "uint256"
						}
					],
					"name": "proposals",
					"outputs": [
						{
							"internalType": "string",
							"name": "description",
							"type": "string"
						},
						{
							"internalType": "uint256",
							"name": "voteCount",
							"type": "uint256"
						}
					],
					"stateMutability": "view",
					"type": "function"
				},
				{
					"inputs": [
						{
							"internalType": "uint256",
							"name": "proposalIndex",
							"type": "uint256"
						}
					],
					"name": "vote",
					"outputs": [],
					"stateMutability": "nonpayable",
					"type": "function"
				}
			],
			"devdoc": {
				"kind": "dev",
				"methods": {},
				"version": 1
			},
			"evm": {
				"assembly": "    /* \"voting.sol\":57:1304  contract Voting {... */\n  mstore(0x40, 0x80)\n    /* \"voting.sol\":273:543  constructor(string[] memory proposalDescriptions) {... */\n  callvalue\n  dup1\n  iszero\n  tag_1\n  jumpi\n  0x00\n  dup1\n  revert\ntag_1:\n  pop\n  mload(0x40)\n  sub(codesize, bytecodeSize)\n  dup1\n  bytecodeSize\n  dup4\n  codecopy\n  dup2\n  dup2\n  add\n  0x40\n  mstore\n  dup2\n  add\n  swap1\n  tag_2\n  swap2\n  swap1\n  tag_3\n  jump\t// in\ntag_2:\n    /* \"voting.sol\":338:344  uint i */\n  0x00\n    /* \"voting.sol\":333:537  for (uint i = 0; i < proposalDescriptions.length; i++) {... */\ntag_6:\n    /* \"voting.sol\":354:374  proposalDescriptions */\n  dup2\n    /* \"voting.sol\":354:381  proposalDescriptions.length */\n  mload\n    /* \"voting.sol\":350:351  i */\n  dup2\n    /* \"voting.sol\":350:381  i < proposalDescriptions.length */\n  lt\n    /* \"voting.sol\":333:537  for (uint i = 0; i < proposalDescriptions.length; i++) {... */\n  iszero\n  tag_7\n  jumpi\n    /* \"voting.sol\":402:411  proposals */\n  0x00\n    /* \"voting.sol\":417:525  Proposal({... */\n  mload(0x40)\n  dup1\n  0x40\n  add\n  0x40\n  mstore\n  dup1\n    /* \"voting.sol\":457:477  proposalDescriptions */\n  dup5\n    /* \"voting.sol\":478:479  i */\n  dup5\n    /* \"voting.sol\":457:480  proposalDescriptions[i] */\n  dup2\n  mload\n  dup2\n  lt\n  tag_9\n  jumpi\n  tag_10\n  tag_11\n  jump\t// in\ntag_10:\ntag_9:\n  0x20\n  mul\n  0x20\n  add\n  add\n  mload\n    /* \"voting.sol\":417:525  Proposal({... */\n  dup2\n  mstore\n  0x20\n  add\n    /* \"voting.sol\":509:510  0 */\n  0x00\n    /* \"voting.sol\":417:525  Proposal({... */\n  dup2\n  mstore\n  pop\n    /* \"voting.sol\":402:526  proposals.push(Proposal({... */\n  swap1\n  dup1\n  0x01\n  dup2\n  sload\n  add\n  dup1\n  dup3\n  sstore\n  dup1\n  swap2\n  pop\n  pop\n  0x01\n  swap1\n  sub\n  swap1\n  0x00\n  mstore\n  keccak256(0x00, 0x20)\n  swap1\n  0x02\n  mul\n  add\n  0x00\n  swap1\n  swap2\n  swap1\n  swap2\n  swap1\n  swap2\n  pop\n  0x00\n  dup3\n  add\n  mload\n  dup2\n  0x00\n  add\n  swap1\n  dup2\n  tag_13\n  swap2\n  swap1\n  tag_14\n  jump\t// in\ntag_13:\n  pop\n  0x20\n  dup3\n  add\n  mload\n  dup2\n  0x01\n  add\n  sstore\n  pop\n  pop\n    /* \"voting.sol\":383:386  i++ */\n  dup1\n  dup1\n  0x01\n  add\n  swap2\n  pop\n  pop\n    /* \"voting.sol\":333:537  for (uint i = 0; i < proposalDescriptions.length; i++) {... */\n  jump(tag_6)\ntag_7:\n  pop\n    /* \"voting.sol\":273:543  constructor(string[] memory proposalDescriptions) {... */\n  pop\n    /* \"voting.sol\":57:1304  contract Voting {... */\n  jump(tag_15)\n    /* \"#utility.yul\":7:82   */\ntag_16:\n    /* \"#utility.yul\":40:46   */\n  0x00\n    /* \"#utility.yul\":73:75   */\n  0x40\n    /* \"#utility.yul\":67:76   */\n  mload\n    /* \"#utility.yul\":57:76   */\n  swap1\n  pop\n    /* \"#utility.yul\":7:82   */\n  swap1\n  jump\t// out\n    /* \"#utility.yul\":88:205   */\ntag_17:\n    /* \"#utility.yul\":197:198   */\n  0x00\n    /* \"#utility.yul\":194:195   */\n  dup1\n    /* \"#utility.yul\":187:199   */\n  revert\n    /* \"#utility.yul\":211:328   */\ntag_18:\n    /* \"#utility.yul\":320:321   */\n  0x00\n    /* \"#utility.yul\":317:318   */\n  dup1\n    /* \"#utility.yul\":310:322   */\n  revert\n    /* \"#utility.yul\":334:451   */\ntag_19:\n    /* \"#utility.yul\":443:444   */\n  0x00\n    /* \"#utility.yul\":440:441   */\n  dup1\n    /* \"#utility.yul\":433:445   */\n  revert\n    /* \"#utility.yul\":457:559   */\ntag_20:\n    /* \"#utility.yul\":498:504   */\n  0x00\n    /* \"#utility.yul\":549:551   */\n  0x1f\n    /* \"#utility.yul\":545:552   */\n  not\n    /* \"#utility.yul\":540:542   */\n  0x1f\n    /* \"#utility.yul\":533:538   */\n  dup4\n    /* \"#utility.yul\":529:543   */\n  add\n    /* \"#utility.yul\":525:553   */\n  and\n    /* \"#utility.yul\":515:553   */\n  swap1\n  pop\n    /* \"#utility.yul\":457:559   */\n  swap2\n  swap1\n  pop\n  jump\t// out\n    /* \"#utility.yul\":565:745   */\ntag_21:\n    /* \"#utility.yul\":613:690   */\n  0x4e487b7100000000000000000000000000000000000000000000000000000000\n    /* \"#utility.yul\":610:611   */\n  0x00\n    /* \"#utility.yul\":603:691   */\n  mstore\n    /* \"#utility.yul\":710:714   */\n  0x41\n    /* \"#utility.yul\":707:708   */\n  0x04\n    /* \"#utility.yul\":700:715   */\n  mstore\n    /* \"#utility.yul\":734:738   */\n  0x24\n    /* \"#utility.yul\":731:732   */\n  0x00\n    /* \"#utility.yul\":724:739   */\n  revert\n    /* \"#utility.yul\":751:1032   */\ntag_22:\n    /* \"#utility.yul\":834:861   */\n  tag_60\n    /* \"#utility.yul\":856:860   */\n  dup3\n    /* \"#utility.yul\":834:861   */\n  tag_20\n  jump\t// in\ntag_60:\n    /* \"#utility.yul\":826:832   */\n  dup2\n    /* \"#utility.yul\":822:862   */\n  add\n    /* \"#utility.yul\":964:970   */\n  dup2\n    /* \"#utility.yul\":952:962   */\n  dup2\n    /* \"#utility.yul\":949:971   */\n  lt\n    /* \"#utility.yul\":928:946   */\n  0xffffffffffffffff\n    /* \"#utility.yul\":916:926   */\n  dup3\n    /* \"#utility.yul\":913:947   */\n  gt\n    /* \"#utility.yul\":910:972   */\n  or\n    /* \"#utility.yul\":907:995   */\n  iszero\n  tag_61\n  jumpi\n    /* \"#utility.yul\":975:993   */\n  tag_62\n  tag_21\n  jump\t// in\ntag_62:\n    /* \"#utility.yul\":907:995   */\ntag_61:\n    /* \"#utility.yul\":1015:1025   */\n  dup1\n    /* \"#utility.yul\":1011:1013   */\n  0x40\n    /* \"#utility.yul\":1004:1026   */\n  mstore\n    /* \"#utility.yul\":794:1032   */\n  pop\n    /* \"#utility.yul\":751:1032   */\n  pop\n  pop\n  jump\t// out\n    /* \"#utility.yul\":1038:1167   */\ntag_23:\n    /* \"#utility.yul\":1072:1078   */\n  0x00\n    /* \"#utility.yul\":1099:1119   */\n  tag_64\n  tag_16\n  jump\t// in\ntag_64:\n    /* \"#utility.yul\":1089:1119   */\n  swap1\n  pop\n    /* \"#utility.yul\":1128:1161   */\n  tag_65\n    /* \"#utility.yul\":1156:1160   */\n  dup3\n    /* \"#utility.yul\":1148:1154   */\n  dup3\n    /* \"#utility.yul\":1128:1161   */\n  tag_22\n  jump\t// in\ntag_65:\n    /* \"#utility.yul\":1038:1167   */\n  swap2\n  swap1\n  pop\n  jump\t// out\n    /* \"#utility.yul\":1173:1494   */\ntag_24:\n    /* \"#utility.yul\":1260:1264   */\n  0x00\n    /* \"#utility.yul\":1350:1368   */\n  0xffffffffffffffff\n    /* \"#utility.yul\":1342:1348   */\n  dup3\n    /* \"#utility.yul\":1339:1369   */\n  gt\n    /* \"#utility.yul\":1336:1392   */\n  iszero\n  tag_67\n  jumpi\n    /* \"#utility.yul\":1372:1390   */\n  tag_68\n  tag_21\n  jump\t// in\ntag_68:\n    /* \"#utility.yul\":1336:1392   */\ntag_67:\n    /* \"#utility.yul\":1422:1426   */\n  0x20\n    /* \"#utility.yul\":1414:1420   */\n  dup3\n    /* \"#utility.yul\":1410:1427   */\n  mul\n    /* \"#utility.yul\":1402:1427   */\n  swap1\n  pop\n    /* \"#utility.yul\":1482:1486   */\n  0x20\n    /* \"#utility.yul\":1476:1480   */\n  dup2\n    /* \"#utility.yul\":1472:1487   */\n  add\n    /* \"#utility.yul\":1464:1487   */\n  swap1\n  pop\n    /* \"#utility.yul\":1173:1494   */\n  swap2\n  swap1\n  pop\n  jump\t// out\n    /* \"#utility.yul\":1500:1617   */\ntag_25:\n    /* \"#utility.yul\":1609:1610   */\n  0x00\n    /* \"#utility.yul\":1606:1607   */\n  dup1\n    /* \"#utility.yul\":1599:1611   */\n  revert\n    /* \"#utility.yul\":1623:1740   */\ntag_26:\n    /* \"#utility.yul\":1732:1733   */\n  0x00\n    /* \"#utility.yul\":1729:1730   */\n  dup1\n    /* \"#utility.yul\":1722:1734   */\n  revert\n    /* \"#utility.yul\":1746:2054   */\ntag_27:\n    /* \"#utility.yul\":1808:1812   */\n  0x00\n    /* \"#utility.yul\":1898:1916   */\n  0xffffffffffffffff\n    /* \"#utility.yul\":1890:1896   */\n  dup3\n    /* \"#utility.yul\":1887:1917   */\n  gt\n    /* \"#utility.yul\":1884:1940   */\n  iszero\n  tag_72\n  jumpi\n    /* \"#utility.yul\":1920:1938   */\n  tag_73\n  tag_21\n  jump\t// in\ntag_73:\n    /* \"#utility.yul\":1884:1940   */\ntag_72:\n    /* \"#utility.yul\":1958:1987   */\n  tag_74\n    /* \"#utility.yul\":1980:1986   */\n  dup3\n    /* \"#utility.yul\":1958:1987   */\n  tag_20\n  jump\t// in\ntag_74:\n    /* \"#utility.yul\":1950:1987   */\n  swap1\n  pop\n    /* \"#utility.yul\":2042:2046   */\n  0x20\n    /* \"#utility.yul\":2036:2040   */\n  dup2\n    /* \"#utility.yul\":2032:2047   */\n  add\n    /* \"#utility.yul\":2024:2047   */\n  swap1\n  pop\n    /* \"#utility.yul\":1746:2054   */\n  swap2\n  swap1\n  pop\n  jump\t// out\n    /* \"#utility.yul\":2060:2199   */\ntag_28:\n    /* \"#utility.yul\":2149:2155   */\n  dup3\n    /* \"#utility.yul\":2144:2147   */\n  dup2\n    /* \"#utility.yul\":2139:2142   */\n  dup4\n    /* \"#utility.yul\":2133:2156   */\n  mcopy\n    /* \"#utility.yul\":2190:2191   */\n  0x00\n    /* \"#utility.yul\":2181:2187   */\n  dup4\n    /* \"#utility.yul\":2176:2179   */\n  dup4\n    /* \"#utility.yul\":2172:2188   */\n  add\n    /* \"#utility.yul\":2165:2192   */\n  mstore\n    /* \"#utility.yul\":2060:2199   */\n  pop\n  pop\n  pop\n  jump\t// out\n    /* \"#utility.yul\":2205:2639   */\ntag_29:\n    /* \"#utility.yul\":2294:2299   */\n  0x00\n    /* \"#utility.yul\":2319:2385   */\n  tag_77\n    /* \"#utility.yul\":2335:2384   */\n  tag_78\n    /* \"#utility.yul\":2377:2383   */\n  dup5\n    /* \"#utility.yul\":2335:2384   */\n  tag_27\n  jump\t// in\ntag_78:\n    /* \"#utility.yul\":2319:2385   */\n  tag_23\n  jump\t// in\ntag_77:\n    /* \"#utility.yul\":2310:2385   */\n  swap1\n  pop\n    /* \"#utility.yul\":2408:2414   */\n  dup3\n    /* \"#utility.yul\":2401:2406   */\n  dup2\n    /* \"#utility.yul\":2394:2415   */\n  mstore\n    /* \"#utility.yul\":2446:2450   */\n  0x20\n    /* \"#utility.yul\":2439:2444   */\n  dup2\n    /* \"#utility.yul\":2435:2451   */\n  add\n    /* \"#utility.yul\":2484:2487   */\n  dup5\n    /* \"#utility.yul\":2475:2481   */\n  dup5\n    /* \"#utility.yul\":2470:2473   */\n  dup5\n    /* \"#utility.yul\":2466:2482   */\n  add\n    /* \"#utility.yul\":2463:2488   */\n  gt\n    /* \"#utility.yul\":2460:2572   */\n  iszero\n  tag_79\n  jumpi\n    /* \"#utility.yul\":2491:2570   */\n  tag_80\n  tag_26\n  jump\t// in\ntag_80:\n    /* \"#utility.yul\":2460:2572   */\ntag_79:\n    /* \"#utility.yul\":2581:2633   */\n  tag_81\n    /* \"#utility.yul\":2626:2632   */\n  dup5\n    /* \"#utility.yul\":2621:2624   */\n  dup3\n    /* \"#utility.yul\":2616:2619   */\n  dup6\n    /* \"#utility.yul\":2581:2633   */\n  tag_28\n  jump\t// in\ntag_81:\n    /* \"#utility.yul\":2300:2639   */\n  pop\n    /* \"#utility.yul\":2205:2639   */\n  swap4\n  swap3\n  pop\n  pop\n  pop\n  jump\t// out\n    /* \"#utility.yul\":2659:3014   */\ntag_30:\n    /* \"#utility.yul\":2726:2731   */\n  0x00\n    /* \"#utility.yul\":2775:2778   */\n  dup3\n    /* \"#utility.yul\":2768:2772   */\n  0x1f\n    /* \"#utility.yul\":2760:2766   */\n  dup4\n    /* \"#utility.yul\":2756:2773   */\n  add\n    /* \"#utility.yul\":2752:2779   */\n  slt\n    /* \"#utility.yul\":2742:2864   */\n  tag_83\n  jumpi\n    /* \"#utility.yul\":2783:2862   */\n  tag_84\n  tag_19\n  jump\t// in\ntag_84:\n    /* \"#utility.yul\":2742:2864   */\ntag_83:\n    /* \"#utility.yul\":2893:2899   */\n  dup2\n    /* \"#utility.yul\":2887:2900   */\n  mload\n    /* \"#utility.yul\":2918:3008   */\n  tag_85\n    /* \"#utility.yul\":3004:3007   */\n  dup5\n    /* \"#utility.yul\":2996:3002   */\n  dup3\n    /* \"#utility.yul\":2989:2993   */\n  0x20\n    /* \"#utility.yul\":2981:2987   */\n  dup7\n    /* \"#utility.yul\":2977:2994   */\n  add\n    /* \"#utility.yul\":2918:3008   */\n  tag_29\n  jump\t// in\ntag_85:\n    /* \"#utility.yul\":2909:3008   */\n  swap2\n  pop\n    /* \"#utility.yul\":2732:3014   */\n  pop\n    /* \"#utility.yul\":2659:3014   */\n  swap3\n  swap2\n  pop\n  pop\n  jump\t// out\n    /* \"#utility.yul\":3036:3996   */\ntag_31:\n    /* \"#utility.yul\":3153:3158   */\n  0x00\n    /* \"#utility.yul\":3178:3269   */\n  tag_87\n    /* \"#utility.yul\":3194:3268   */\n  tag_88\n    /* \"#utility.yul\":3261:3267   */\n  dup5\n    /* \"#utility.yul\":3194:3268   */\n  tag_24\n  jump\t// in\ntag_88:\n    /* \"#utility.yul\":3178:3269   */\n  tag_23\n  jump\t// in\ntag_87:\n    /* \"#utility.yul\":3169:3269   */\n  swap1\n  pop\n    /* \"#utility.yul\":3289:3294   */\n  dup1\n    /* \"#utility.yul\":3318:3324   */\n  dup4\n    /* \"#utility.yul\":3311:3316   */\n  dup3\n    /* \"#utility.yul\":3304:3325   */\n  mstore\n    /* \"#utility.yul\":3352:3356   */\n  0x20\n    /* \"#utility.yul\":3345:3350   */\n  dup3\n    /* \"#utility.yul\":3341:3357   */\n  add\n    /* \"#utility.yul\":3334:3357   */\n  swap1\n  pop\n    /* \"#utility.yul\":3405:3409   */\n  0x20\n    /* \"#utility.yul\":3397:3403   */\n  dup5\n    /* \"#utility.yul\":3393:3410   */\n  mul\n    /* \"#utility.yul\":3385:3391   */\n  dup4\n    /* \"#utility.yul\":3381:3411   */\n  add\n    /* \"#utility.yul\":3434:3437   */\n  dup6\n    /* \"#utility.yul\":3426:3432   */\n  dup2\n    /* \"#utility.yul\":3423:3438   */\n  gt\n    /* \"#utility.yul\":3420:3542   */\n  iszero\n  tag_89\n  jumpi\n    /* \"#utility.yul\":3453:3532   */\n  tag_90\n  tag_25\n  jump\t// in\ntag_90:\n    /* \"#utility.yul\":3420:3542   */\ntag_89:\n    /* \"#utility.yul\":3568:3574   */\n  dup4\n    /* \"#utility.yul\":3551:3990   */\ntag_91:\n    /* \"#utility.yul\":3585:3591   */\n  dup2\n    /* \"#utility.yul\":3580:3583   */\n  dup2\n    /* \"#utility.yul\":3577:3592   */\n  lt\n    /* \"#utility.yul\":3551:3990   */\n  iszero\n  tag_93\n  jumpi\n    /* \"#utility.yul\":3667:3670   */\n  dup1\n    /* \"#utility.yul\":3661:3671   */\n  mload\n    /* \"#utility.yul\":3703:3721   */\n  0xffffffffffffffff\n    /* \"#utility.yul\":3690:3701   */\n  dup2\n    /* \"#utility.yul\":3687:3722   */\n  gt\n    /* \"#utility.yul\":3684:3806   */\n  iszero\n  tag_94\n  jumpi\n    /* \"#utility.yul\":3725:3804   */\n  tag_95\n  tag_19\n  jump\t// in\ntag_95:\n    /* \"#utility.yul\":3684:3806   */\ntag_94:\n    /* \"#utility.yul\":3849:3860   */\n  dup1\n    /* \"#utility.yul\":3841:3847   */\n  dup7\n    /* \"#utility.yul\":3837:3861   */\n  add\n    /* \"#utility.yul\":3887:3945   */\n  tag_96\n    /* \"#utility.yul\":3941:3944   */\n  dup10\n    /* \"#utility.yul\":3929:3939   */\n  dup3\n    /* \"#utility.yul\":3887:3945   */\n  tag_30\n  jump\t// in\ntag_96:\n    /* \"#utility.yul\":3882:3885   */\n  dup6\n    /* \"#utility.yul\":3875:3946   */\n  mstore\n    /* \"#utility.yul\":3975:3979   */\n  0x20\n    /* \"#utility.yul\":3970:3973   */\n  dup6\n    /* \"#utility.yul\":3966:3980   */\n  add\n    /* \"#utility.yul\":3959:3980   */\n  swap5\n  pop\n    /* \"#utility.yul\":3627:3990   */\n  pop\n  pop\n    /* \"#utility.yul\":3611:3615   */\n  0x20\n    /* \"#utility.yul\":3606:3609   */\n  dup2\n    /* \"#utility.yul\":3602:3616   */\n  add\n    /* \"#utility.yul\":3595:3616   */\n  swap1\n  pop\n    /* \"#utility.yul\":3551:3990   */\n  jump(tag_91)\ntag_93:\n    /* \"#utility.yul\":3555:3576   */\n  pop\n    /* \"#utility.yul\":3159:3996   */\n  pop\n  pop\n    /* \"#utility.yul\":3036:3996   */\n  swap4\n  swap3\n  pop\n  pop\n  pop\n  jump\t// out\n    /* \"#utility.yul\":4018:4423   */\ntag_32:\n    /* \"#utility.yul\":4110:4115   */\n  0x00\n    /* \"#utility.yul\":4159:4162   */\n  dup3\n    /* \"#utility.yul\":4152:4156   */\n  0x1f\n    /* \"#utility.yul\":4144:4150   */\n  dup4\n    /* \"#utility.yul\":4140:4157   */\n  add\n    /* \"#utility.yul\":4136:4163   */\n  slt\n    /* \"#utility.yul\":4126:4248   */\n  tag_98\n  jumpi\n    /* \"#utility.yul\":4167:4246   */\n  tag_99\n  tag_19\n  jump\t// in\ntag_99:\n    /* \"#utility.yul\":4126:4248   */\ntag_98:\n    /* \"#utility.yul\":4277:4283   */\n  dup2\n    /* \"#utility.yul\":4271:4284   */\n  mload\n    /* \"#utility.yul\":4302:4417   */\n  tag_100\n    /* \"#utility.yul\":4413:4416   */\n  dup5\n    /* \"#utility.yul\":4405:4411   */\n  dup3\n    /* \"#utility.yul\":4398:4402   */\n  0x20\n    /* \"#utility.yul\":4390:4396   */\n  dup7\n    /* \"#utility.yul\":4386:4403   */\n  add\n    /* \"#utility.yul\":4302:4417   */\n  tag_31\n  jump\t// in\ntag_100:\n    /* \"#utility.yul\":4293:4417   */\n  swap2\n  pop\n    /* \"#utility.yul\":4116:4423   */\n  pop\n    /* \"#utility.yul\":4018:4423   */\n  swap3\n  swap2\n  pop\n  pop\n  jump\t// out\n    /* \"#utility.yul\":4429:5003   */\ntag_3:\n    /* \"#utility.yul\":4534:4540   */\n  0x00\n    /* \"#utility.yul\":4583:4585   */\n  0x20\n    /* \"#utility.yul\":4571:4580   */\n  dup3\n    /* \"#utility.yul\":4562:4569   */\n  dup5\n    /* \"#utility.yul\":4558:4581   */\n  sub\n    /* \"#utility.yul\":4554:4586   */\n  slt\n    /* \"#utility.yul\":4551:4670   */\n  iszero\n  tag_102\n  jumpi\n    /* \"#utility.yul\":4589:4668   */\n  tag_103\n  tag_17\n  jump\t// in\ntag_103:\n    /* \"#utility.yul\":4551:4670   */\ntag_102:\n    /* \"#utility.yul\":4730:4731   */\n  0x00\n    /* \"#utility.yul\":4719:4728   */\n  dup3\n    /* \"#utility.yul\":4715:4732   */\n  add\n    /* \"#utility.yul\":4709:4733   */\n  mload\n    /* \"#utility.yul\":4760:4778   */\n  0xffffffffffffffff\n    /* \"#utility.yul\":4752:4758   */\n  dup2\n    /* \"#utility.yul\":4749:4779   */\n  gt\n    /* \"#utility.yul\":4746:4863   */\n  iszero\n  tag_104\n  jumpi\n    /* \"#utility.yul\":4782:4861   */\n  tag_105\n  tag_18\n  jump\t// in\ntag_105:\n    /* \"#utility.yul\":4746:4863   */\ntag_104:\n    /* \"#utility.yul\":4887:4986   */\n  tag_106\n    /* \"#utility.yul\":4978:4985   */\n  dup5\n    /* \"#utility.yul\":4969:4975   */\n  dup3\n    /* \"#utility.yul\":4958:4967   */\n  dup6\n    /* \"#utility.yul\":4954:4976   */\n  add\n    /* \"#utility.yul\":4887:4986   */\n  tag_32\n  jump\t// in\ntag_106:\n    /* \"#utility.yul\":4877:4986   */\n  swap2\n  pop\n    /* \"#utility.yul\":4680:4996   */\n  pop\n    /* \"#utility.yul\":4429:5003   */\n  swap3\n  swap2\n  pop\n  pop\n  jump\t// out\n    /* \"#utility.yul\":5009:5189   */\ntag_11:\n    /* \"#utility.yul\":5057:5134   */\n  0x4e487b7100000000000000000000000000000000000000000000000000000000\n    /* \"#utility.yul\":5054:5055   */\n  0x00\n    /* \"#utility.yul\":5047:5135   */\n  mstore\n    /* \"#utility.yul\":5154:5158   */\n  0x32\n    /* \"#utility.yul\":5151:5152   */\n  0x04\n    /* \"#utility.yul\":5144:5159   */\n  mstore\n    /* \"#utility.yul\":5178:5182   */\n  0x24\n    /* \"#utility.yul\":5175:5176   */\n  0x00\n    /* \"#utility.yul\":5168:5183   */\n  revert\n    /* \"#utility.yul\":5195:5294   */\ntag_33:\n    /* \"#utility.yul\":5247:5253   */\n  0x00\n    /* \"#utility.yul\":5281:5286   */\n  dup2\n    /* \"#utility.yul\":5275:5287   */\n  mload\n    /* \"#utility.yul\":5265:5287   */\n  swap1\n  pop\n    /* \"#utility.yul\":5195:5294   */\n  swap2\n  swap1\n  pop\n  jump\t// out\n    /* \"#utility.yul\":5300:5480   */\ntag_34:\n    /* \"#utility.yul\":5348:5425   */\n  0x4e487b7100000000000000000000000000000000000000000000000000000000\n    /* \"#utility.yul\":5345:5346   */\n  0x00\n    /* \"#utility.yul\":5338:5426   */\n  mstore\n    /* \"#utility.yul\":5445:5449   */\n  0x22\n    /* \"#utility.yul\":5442:5443   */\n  0x04\n    /* \"#utility.yul\":5435:5450   */\n  mstore\n    /* \"#utility.yul\":5469:5473   */\n  0x24\n    /* \"#utility.yul\":5466:5467   */\n  0x00\n    /* \"#utility.yul\":5459:5474   */\n  revert\n    /* \"#utility.yul\":5486:5806   */\ntag_35:\n    /* \"#utility.yul\":5530:5536   */\n  0x00\n    /* \"#utility.yul\":5567:5568   */\n  0x02\n    /* \"#utility.yul\":5561:5565   */\n  dup3\n    /* \"#utility.yul\":5557:5569   */\n  div\n    /* \"#utility.yul\":5547:5569   */\n  swap1\n  pop\n    /* \"#utility.yul\":5614:5615   */\n  0x01\n    /* \"#utility.yul\":5608:5612   */\n  dup3\n    /* \"#utility.yul\":5604:5616   */\n  and\n    /* \"#utility.yul\":5635:5653   */\n  dup1\n    /* \"#utility.yul\":5625:5706   */\n  tag_111\n  jumpi\n    /* \"#utility.yul\":5691:5695   */\n  0x7f\n    /* \"#utility.yul\":5683:5689   */\n  dup3\n    /* \"#utility.yul\":5679:5696   */\n  and\n    /* \"#utility.yul\":5669:5696   */\n  swap2\n  pop\n    /* \"#utility.yul\":5625:5706   */\ntag_111:\n    /* \"#utility.yul\":5753:5755   */\n  0x20\n    /* \"#utility.yul\":5745:5751   */\n  dup3\n    /* \"#utility.yul\":5742:5756   */\n  lt\n    /* \"#utility.yul\":5722:5740   */\n  dup2\n    /* \"#utility.yul\":5719:5757   */\n  sub\n    /* \"#utility.yul\":5716:5800   */\n  tag_112\n  jumpi\n    /* \"#utility.yul\":5772:5790   */\n  tag_113\n  tag_34\n  jump\t// in\ntag_113:\n    /* \"#utility.yul\":5716:5800   */\ntag_112:\n    /* \"#utility.yul\":5537:5806   */\n  pop\n    /* \"#utility.yul\":5486:5806   */\n  swap2\n  swap1\n  pop\n  jump\t// out\n    /* \"#utility.yul\":5812:5953   */\ntag_36:\n    /* \"#utility.yul\":5861:5865   */\n  0x00\n    /* \"#utility.yul\":5884:5887   */\n  dup2\n    /* \"#utility.yul\":5876:5887   */\n  swap1\n  pop\n    /* \"#utility.yul\":5907:5910   */\n  dup2\n    /* \"#utility.yul\":5904:5905   */\n  0x00\n    /* \"#utility.yul\":5897:5911   */\n  mstore\n    /* \"#utility.yul\":5941:5945   */\n  0x20\n    /* \"#utility.yul\":5938:5939   */\n  0x00\n    /* \"#utility.yul\":5928:5946   */\n  keccak256\n    /* \"#utility.yul\":5920:5946   */\n  swap1\n  pop\n    /* \"#utility.yul\":5812:5953   */\n  swap2\n  swap1\n  pop\n  jump\t// out\n    /* \"#utility.yul\":5959:6052   */\ntag_37:\n    /* \"#utility.yul\":5996:6002   */\n  0x00\n    /* \"#utility.yul\":6043:6045   */\n  0x20\n    /* \"#utility.yul\":6038:6040   */\n  0x1f\n    /* \"#utility.yul\":6031:6036   */\n  dup4\n    /* \"#utility.yul\":6027:6041   */\n  add\n    /* \"#utility.yul\":6023:6046   */\n  div\n    /* \"#utility.yul\":6013:6046   */\n  swap1\n  pop\n    /* \"#utility.yul\":5959:6052   */\n  swap2\n  swap1\n  pop\n  jump\t// out\n    /* \"#utility.yul\":6058:6165   */\ntag_38:\n    /* \"#utility.yul\":6102:6110   */\n  0x00\n    /* \"#utility.yul\":6152:6157   */\n  dup3\n    /* \"#utility.yul\":6146:6150   */\n  dup3\n    /* \"#utility.yul\":6142:6158   */\n  shl\n    /* \"#utility.yul\":6121:6158   */\n  swap1\n  pop\n    /* \"#utility.yul\":6058:6165   */\n  swap3\n  swap2\n  pop\n  pop\n  jump\t// out\n    /* \"#utility.yul\":6171:6564   */\ntag_39:\n    /* \"#utility.yul\":6240:6246   */\n  0x00\n    /* \"#utility.yul\":6290:6291   */\n  0x08\n    /* \"#utility.yul\":6278:6288   */\n  dup4\n    /* \"#utility.yul\":6274:6292   */\n  mul\n    /* \"#utility.yul\":6313:6410   */\n  tag_118\n    /* \"#utility.yul\":6343:6409   */\n  0xffffffffffffffffffffffffffffffffffffffffffffffffffffffffffffffff\n    /* \"#utility.yul\":6332:6341   */\n  dup3\n    /* \"#utility.yul\":6313:6410   */\n  tag_38\n  jump\t// in\ntag_118:\n    /* \"#utility.yul\":6431:6470   */\n  tag_119\n    /* \"#utility.yul\":6461:6469   */\n  dup7\n    /* \"#utility.yul\":6450:6459   */\n  dup4\n    /* \"#utility.yul\":6431:6470   */\n  tag_38\n  jump\t// in\ntag_119:\n    /* \"#utility.yul\":6419:6470   */\n  swap6\n  pop\n    /* \"#utility.yul\":6503:6507   */\n  dup1\n    /* \"#utility.yul\":6499:6508   */\n  not\n    /* \"#utility.yul\":6492:6497   */\n  dup5\n    /* \"#utility.yul\":6488:6509   */\n  and\n    /* \"#utility.yul\":6479:6509   */\n  swap4\n  pop\n    /* \"#utility.yul\":6552:6556   */\n  dup1\n    /* \"#utility.yul\":6542:6550   */\n  dup7\n    /* \"#utility.yul\":6538:6557   */\n  and\n    /* \"#utility.yul\":6531:6536   */\n  dup5\n    /* \"#utility.yul\":6528:6558   */\n  or\n    /* \"#utility.yul\":6518:6558   */\n  swap3\n  pop\n    /* \"#utility.yul\":6247:6564   */\n  pop\n  pop\n    /* \"#utility.yul\":6171:6564   */\n  swap4\n  swap3\n  pop\n  pop\n  pop\n  jump\t// out\n    /* \"#utility.yul\":6570:6647   */\ntag_40:\n    /* \"#utility.yul\":6607:6614   */\n  0x00\n    /* \"#utility.yul\":6636:6641   */\n  dup2\n    /* \"#utility.yul\":6625:6641   */\n  swap1\n  pop\n    /* \"#utility.yul\":6570:6647   */\n  swap2\n  swap1\n  pop\n  jump\t// out\n    /* \"#utility.yul\":6653:6713   */\ntag_41:\n    /* \"#utility.yul\":6681:6684   */\n  0x00\n    /* \"#utility.yul\":6702:6707   */\n  dup2\n    /* \"#utility.yul\":6695:6707   */\n  swap1\n  pop\n    /* \"#utility.yul\":6653:6713   */\n  swap2\n  swap1\n  pop\n  jump\t// out\n    /* \"#utility.yul\":6719:6861   */\ntag_42:\n    /* \"#utility.yul\":6769:6778   */\n  0x00\n    /* \"#utility.yul\":6802:6855   */\n  tag_123\n    /* \"#utility.yul\":6820:6854   */\n  tag_124\n    /* \"#utility.yul\":6829:6853   */\n  tag_125\n    /* \"#utility.yul\":6847:6852   */\n  dup5\n    /* \"#utility.yul\":6829:6853   */\n  tag_40\n  jump\t// in\ntag_125:\n    /* \"#utility.yul\":6820:6854   */\n  tag_41\n  jump\t// in\ntag_124:\n    /* \"#utility.yul\":6802:6855   */\n  tag_40\n  jump\t// in\ntag_123:\n    /* \"#utility.yul\":6789:6855   */\n  swap1\n  pop\n    /* \"#utility.yul\":6719:6861   */\n  swap2\n  swap1\n  pop\n  jump\t// out\n    /* \"#utility.yul\":6867:6942   */\ntag_43:\n    /* \"#utility.yul\":6910:6913   */\n  0x00\n    /* \"#utility.yul\":6931:6936   */\n  dup2\n    /* \"#utility.yul\":6924:6936   */\n  swap1\n  pop\n    /* \"#utility.yul\":6867:6942   */\n  swap2\n  swap1\n  pop\n  jump\t// out\n    /* \"#utility.yul\":6948:7217   */\ntag_44:\n    /* \"#utility.yul\":7058:7097   */\n  tag_128\n    /* \"#utility.yul\":7089:7096   */\n  dup4\n    /* \"#utility.yul\":7058:7097   */\n  tag_42\n  jump\t// in\ntag_128:\n    /* \"#utility.yul\":7119:7210   */\n  tag_129\n    /* \"#utility.yul\":7168:7209   */\n  tag_130\n    /* \"#utility.yul\":7192:7208   */\n  dup3\n    /* \"#utility.yul\":7168:7209   */\n  tag_43\n  jump\t// in\ntag_130:\n    /* \"#utility.yul\":7160:7166   */\n  dup5\n    /* \"#utility.yul\":7153:7157   */\n  dup5\n    /* \"#utility.yul\":7147:7158   */\n  sload\n    /* \"#utility.yul\":7119:7210   */\n  tag_39\n  jump\t// in\ntag_129:\n    /* \"#utility.yul\":7113:7117   */\n  dup3\n    /* \"#utility.yul\":7106:7211   */\n  sstore\n    /* \"#utility.yul\":7024:7217   */\n  pop\n    /* \"#utility.yul\":6948:7217   */\n  pop\n  pop\n  pop\n  jump\t// out\n    /* \"#utility.yul\":7223:7296   */\ntag_45:\n    /* \"#utility.yul\":7268:7271   */\n  0x00\n    /* \"#utility.yul\":7223:7296   */\n  swap1\n  jump\t// out\n    /* \"#utility.yul\":7302:7491   */\ntag_46:\n    /* \"#utility.yul\":7379:7411   */\n  tag_133\n  tag_45\n  jump\t// in\ntag_133:\n    /* \"#utility.yul\":7420:7485   */\n  tag_134\n    /* \"#utility.yul\":7478:7484   */\n  dup2\n    /* \"#utility.yul\":7470:7476   */\n  dup5\n    /* \"#utility.yul\":7464:7468   */\n  dup5\n    /* \"#utility.yul\":7420:7485   */\n  tag_44\n  jump\t// in\ntag_134:\n    /* \"#utility.yul\":7355:7491   */\n  pop\n    /* \"#utility.yul\":7302:7491   */\n  pop\n  pop\n  jump\t// out\n    /* \"#utility.yul\":7497:7683   */\ntag_47:\n    /* \"#utility.yul\":7557:7677   */\ntag_136:\n    /* \"#utility.yul\":7574:7577   */\n  dup2\n    /* \"#utility.yul\":7567:7572   */\n  dup2\n    /* \"#utility.yul\":7564:7578   */\n  lt\n    /* \"#utility.yul\":7557:7677   */\n  iszero\n  tag_138\n  jumpi\n    /* \"#utility.yul\":7628:7667   */\n  tag_139\n    /* \"#utility.yul\":7665:7666   */\n  0x00\n    /* \"#utility.yul\":7658:7663   */\n  dup3\n    /* \"#utility.yul\":7628:7667   */\n  tag_46\n  jump\t// in\ntag_139:\n    /* \"#utility.yul\":7601:7602   */\n  0x01\n    /* \"#utility.yul\":7594:7599   */\n  dup2\n    /* \"#utility.yul\":7590:7603   */\n  add\n    /* \"#utility.yul\":7581:7603   */\n  swap1\n  pop\n    /* \"#utility.yul\":7557:7677   */\n  jump(tag_136)\ntag_138:\n    /* \"#utility.yul\":7497:7683   */\n  pop\n  pop\n  jump\t// out\n    /* \"#utility.yul\":7689:8232   */\ntag_48:\n    /* \"#utility.yul\":7790:7792   */\n  0x1f\n    /* \"#utility.yul\":7785:7788   */\n  dup3\n    /* \"#utility.yul\":7782:7793   */\n  gt\n    /* \"#utility.yul\":7779:8225   */\n  iszero\n  tag_141\n  jumpi\n    /* \"#utility.yul\":7824:7862   */\n  tag_142\n    /* \"#utility.yul\":7856:7861   */\n  dup2\n    /* \"#utility.yul\":7824:7862   */\n  tag_36\n  jump\t// in\ntag_142:\n    /* \"#utility.yul\":7908:7937   */\n  tag_143\n    /* \"#utility.yul\":7926:7936   */\n  dup5\n    /* \"#utility.yul\":7908:7937   */\n  tag_37\n  jump\t// in\ntag_143:\n    /* \"#utility.yul\":7898:7906   */\n  dup2\n    /* \"#utility.yul\":7894:7938   */\n  add\n    /* \"#utility.yul\":8091:8093   */\n  0x20\n    /* \"#utility.yul\":8079:8089   */\n  dup6\n    /* \"#utility.yul\":8076:8094   */\n  lt\n    /* \"#utility.yul\":8073:8122   */\n  iszero\n  tag_144\n  jumpi\n    /* \"#utility.yul\":8112:8120   */\n  dup2\n    /* \"#utility.yul\":8097:8120   */\n  swap1\n  pop\n    /* \"#utility.yul\":8073:8122   */\ntag_144:\n    /* \"#utility.yul\":8135:8215   */\n  tag_145\n    /* \"#utility.yul\":8191:8213   */\n  tag_146\n    /* \"#utility.yul\":8209:8212   */\n  dup6\n    /* \"#utility.yul\":8191:8213   */\n  tag_37\n  jump\t// in\ntag_146:\n    /* \"#utility.yul\":8181:8189   */\n  dup4\n    /* \"#utility.yul\":8177:8214   */\n  add\n    /* \"#utility.yul\":8164:8175   */\n  dup3\n    /* \"#utility.yul\":8135:8215   */\n  tag_47\n  jump\t// in\ntag_145:\n    /* \"#utility.yul\":7794:8225   */\n  pop\n  pop\n    /* \"#utility.yul\":7779:8225   */\ntag_141:\n    /* \"#utility.yul\":7689:8232   */\n  pop\n  pop\n  pop\n  jump\t// out\n    /* \"#utility.yul\":8238:8355   */\ntag_49:\n    /* \"#utility.yul\":8292:8300   */\n  0x00\n    /* \"#utility.yul\":8342:8347   */\n  dup3\n    /* \"#utility.yul\":8336:8340   */\n  dup3\n    /* \"#utility.yul\":8332:8348   */\n  shr\n    /* \"#utility.yul\":8311:8348   */\n  swap1\n  pop\n    /* \"#utility.yul\":8238:8355   */\n  swap3\n  swap2\n  pop\n  pop\n  jump\t// out\n    /* \"#utility.yul\":8361:8530   */\ntag_50:\n    /* \"#utility.yul\":8405:8411   */\n  0x00\n    /* \"#utility.yul\":8438:8489   */\n  tag_149\n    /* \"#utility.yul\":8486:8487   */\n  0x00\n    /* \"#utility.yul\":8482:8488   */\n  not\n    /* \"#utility.yul\":8474:8479   */\n  dup5\n    /* \"#utility.yul\":8471:8472   */\n  0x08\n    /* \"#utility.yul\":8467:8480   */\n  mul\n    /* \"#utility.yul\":8438:8489   */\n  tag_49\n  jump\t// in\ntag_149:\n    /* \"#utility.yul\":8434:8490   */\n  not\n    /* \"#utility.yul\":8519:8523   */\n  dup1\n    /* \"#utility.yul\":8513:8517   */\n  dup4\n    /* \"#utility.yul\":8509:8524   */\n  and\n    /* \"#utility.yul\":8499:8524   */\n  swap2\n  pop\n    /* \"#utility.yul\":8412:8530   */\n  pop\n    /* \"#utility.yul\":8361:8530   */\n  swap3\n  swap2\n  pop\n  pop\n  jump\t// out\n    /* \"#utility.yul\":8535:8830   */\ntag_51:\n    /* \"#utility.yul\":8611:8615   */\n  0x00\n    /* \"#utility.yul\":8757:8786   */\n  tag_151\n    /* \"#utility.yul\":8782:8785   */\n  dup4\n    /* \"#utility.yul\":8776:8780   */\n  dup4\n    /* \"#utility.yul\":8757:8786   */\n  tag_50\n  jump\t// in\ntag_151:\n    /* \"#utility.yul\":8749:8786   */\n  swap2\n  pop\n    /* \"#utility.yul\":8819:8822   */\n  dup3\n    /* \"#utility.yul\":8816:8817   */\n  0x02\n    /* \"#utility.yul\":8812:8823   */\n  mul\n    /* \"#utility.yul\":8806:8810   */\n  dup3\n    /* \"#utility.yul\":8803:8824   */\n  or\n    /* \"#utility.yul\":8795:8824   */\n  swap1\n  pop\n    /* \"#utility.yul\":8535:8830   */\n  swap3\n  swap2\n  pop\n  pop\n  jump\t// out\n    /* \"#utility.yul\":8835:10230   */\ntag_14:\n    /* \"#utility.yul\":8952:8989   */\n  tag_153\n    /* \"#utility.yul\":8985:8988   */\n  dup3\n    /* \"#utility.yul\":8952:8989   */\n  tag_33\n  jump\t// in\ntag_153:\n    /* \"#utility.yul\":9054:9072   */\n  0xffffffffffffffff\n    /* \"#utility.yul\":9046:9052   */\n  dup2\n    /* \"#utility.yul\":9043:9073   */\n  gt\n    /* \"#utility.yul\":9040:9096   */\n  iszero\n  tag_154\n  jumpi\n    /* \"#utility.yul\":9076:9094   */\n  tag_155\n  tag_21\n  jump\t// in\ntag_155:\n    /* \"#utility.yul\":9040:9096   */\ntag_154:\n    /* \"#utility.yul\":9120:9158   */\n  tag_156\n    /* \"#utility.yul\":9152:9156   */\n  dup3\n    /* \"#utility.yul\":9146:9157   */\n  sload\n    /* \"#utility.yul\":9120:9158   */\n  tag_35\n  jump\t// in\ntag_156:\n    /* \"#utility.yul\":9205:9272   */\n  tag_157\n    /* \"#utility.yul\":9265:9271   */\n  dup3\n    /* \"#utility.yul\":9257:9263   */\n  dup3\n    /* \"#utility.yul\":9251:9255   */\n  dup6\n    /* \"#utility.yul\":9205:9272   */\n  tag_48\n  jump\t// in\ntag_157:\n    /* \"#utility.yul\":9299:9300   */\n  0x00\n    /* \"#utility.yul\":9323:9327   */\n  0x20\n    /* \"#utility.yul\":9310:9327   */\n  swap1\n  pop\n    /* \"#utility.yul\":9355:9357   */\n  0x1f\n    /* \"#utility.yul\":9347:9353   */\n  dup4\n    /* \"#utility.yul\":9344:9358   */\n  gt\n    /* \"#utility.yul\":9372:9373   */\n  0x01\n    /* \"#utility.yul\":9367:9985   */\n  dup2\n  eq\n  tag_159\n  jumpi\n    /* \"#utility.yul\":10029:10030   */\n  0x00\n    /* \"#utility.yul\":10046:10052   */\n  dup5\n    /* \"#utility.yul\":10043:10120   */\n  iszero\n  tag_160\n  jumpi\n    /* \"#utility.yul\":10095:10104   */\n  dup3\n    /* \"#utility.yul\":10090:10093   */\n  dup8\n    /* \"#utility.yul\":10086:10105   */\n  add\n    /* \"#utility.yul\":10080:10106   */\n  mload\n    /* \"#utility.yul\":10071:10106   */\n  swap1\n  pop\n    /* \"#utility.yul\":10043:10120   */\ntag_160:\n    /* \"#utility.yul\":10146:10213   */\n  tag_161\n    /* \"#utility.yul\":10206:10212   */\n  dup6\n    /* \"#utility.yul\":10199:10204   */\n  dup3\n    /* \"#utility.yul\":10146:10213   */\n  tag_51\n  jump\t// in\ntag_161:\n    /* \"#utility.yul\":10140:10144   */\n  dup7\n    /* \"#utility.yul\":10133:10214   */\n  sstore\n    /* \"#utility.yul\":10002:10224   */\n  pop\n    /* \"#utility.yul\":9337:10224   */\n  jump(tag_158)\n    /* \"#utility.yul\":9367:9985   */\ntag_159:\n    /* \"#utility.yul\":9419:9423   */\n  0x1f\n    /* \"#utility.yul\":9415:9424   */\n  not\n    /* \"#utility.yul\":9407:9413   */\n  dup5\n    /* \"#utility.yul\":9403:9425   */\n  and\n    /* \"#utility.yul\":9453:9490   */\n  tag_162\n    /* \"#utility.yul\":9485:9489   */\n  dup7\n    /* \"#utility.yul\":9453:9490   */\n  tag_36\n  jump\t// in\ntag_162:\n    /* \"#utility.yul\":9512:9513   */\n  0x00\n    /* \"#utility.yul\":9526:9734   */\ntag_163:\n    /* \"#utility.yul\":9540:9547   */\n  dup3\n    /* \"#utility.yul\":9537:9538   */\n  dup2\n    /* \"#utility.yul\":9534:9548   */\n  lt\n    /* \"#utility.yul\":9526:9734   */\n  iszero\n  tag_165\n  jumpi\n    /* \"#utility.yul\":9619:9628   */\n  dup5\n    /* \"#utility.yul\":9614:9617   */\n  dup10\n    /* \"#utility.yul\":9610:9629   */\n  add\n    /* \"#utility.yul\":9604:9630   */\n  mload\n    /* \"#utility.yul\":9596:9602   */\n  dup3\n    /* \"#utility.yul\":9589:9631   */\n  sstore\n    /* \"#utility.yul\":9670:9671   */\n  0x01\n    /* \"#utility.yul\":9662:9668   */\n  dup3\n    /* \"#utility.yul\":9658:9672   */\n  add\n    /* \"#utility.yul\":9648:9672   */\n  swap2\n  pop\n    /* \"#utility.yul\":9717:9719   */\n  0x20\n    /* \"#utility.yul\":9706:9715   */\n  dup6\n    /* \"#utility.yul\":9702:9720   */\n  add\n    /* \"#utility.yul\":9689:9720   */\n  swap5\n  pop\n    /* \"#utility.yul\":9563:9567   */\n  0x20\n    /* \"#utility.yul\":9560:9561   */\n  dup2\n    /* \"#utility.yul\":9556:9568   */\n  add\n    /* \"#utility.yul\":9551:9568   */\n  swap1\n  pop\n    /* \"#utility.yul\":9526:9734   */\n  jump(tag_163)\ntag_165:\n    /* \"#utility.yul\":9762:9768   */\n  dup7\n    /* \"#utility.yul\":9753:9760   */\n  dup4\n    /* \"#utility.yul\":9750:9769   */\n  lt\n    /* \"#utility.yul\":9747:9926   */\n  iszero\n  tag_166\n  jumpi\n    /* \"#utility.yul\":9820:9829   */\n  dup5\n    /* \"#utility.yul\":9815:9818   */\n  dup10\n    /* \"#utility.yul\":9811:9830   */\n  add\n    /* \"#utility.yul\":9805:9831   */\n  mload\n    /* \"#utility.yul\":9863:9911   */\n  tag_167\n    /* \"#utility.yul\":9905:9909   */\n  0x1f\n    /* \"#utility.yul\":9897:9903   */\n  dup10\n    /* \"#utility.yul\":9893:9910   */\n  and\n    /* \"#utility.yul\":9882:9891   */\n  dup3\n    /* \"#utility.yul\":9863:9911   */\n  tag_50\n  jump\t// in\ntag_167:\n    /* \"#utility.yul\":9855:9861   */\n  dup4\n    /* \"#utility.yul\":9848:9912   */\n  sstore\n    /* \"#utility.yul\":9770:9926   */\n  pop\n    /* \"#utility.yul\":9747:9926   */\ntag_166:\n    /* \"#utility.yul\":9972:9973   */\n  0x01\n    /* \"#utility.yul\":9968:9969   */\n  0x02\n    /* \"#utility.yul\":9960:9966   */\n  dup9\n    /* \"#utility.yul\":9956:9970   */\n  mul\n    /* \"#utility.yul\":9952:9974   */\n  add\n    /* \"#utility.yul\":9946:9950   */\n  dup9\n    /* \"#utility.yul\":9939:9975   */\n  sstore\n    /* \"#utility.yul\":9374:9985   */\n  pop\n  pop\n  pop\n    /* \"#utility.yul\":9337:10224   */\ntag_158:\n  pop\n    /* \"#utility.yul\":8927:10230   */\n  pop\n  pop\n  pop\n    /* \"#utility.yul\":8835:10230   */\n  pop\n  pop\n  jump\t// out\n    /* \"voting.sol\":57:1304  contract Voting {... */\ntag_15:\n  dataSize(sub_0)\n  dup1\n  dataOffset(sub_0)\n  0x00\n  codecopy\n  0x00\n  return\nstop\n\nsub_0: assembly {\n        /* \"voting.sol\":57:1304  contract Voting {... */\n      mstore(0x40, 0x80)\n      callvalue\n      dup1\n      iszero\n      tag_1\n      jumpi\n      0x00\n      dup1\n      revert\n    tag_1:\n      pop\n      jumpi(tag_2, lt(calldatasize, 0x04))\n      shr(0xe0, calldataload(0x00))\n      dup1\n      0x0121b93f\n      eq\n      tag_3\n      jumpi\n      dup1\n      0x013cf08b\n      eq\n      tag_4\n      jumpi\n      dup1\n      0x09eef43e\n      eq\n      tag_5\n      jumpi\n      dup1\n      0xc7f758a8\n      eq\n      tag_6\n      jumpi\n      dup1\n      0xcceb68f5\n      eq\n      tag_7\n      jumpi\n    tag_2:\n      0x00\n      dup1\n      revert\n        /* \"voting.sol\":572:851  function vote(uint proposalIndex) public {... */\n    tag_3:\n      tag_8\n      0x04\n      dup1\n      calldatasize\n      sub\n      dup2\n      add\n      swap1\n      tag_9\n      swap2\n      swap1\n      tag_10\n      jump\t// in\n    tag_9:\n      tag_11\n      jump\t// in\n    tag_8:\n      stop\n        /* \"voting.sol\":160:187  Proposal[] public proposals */\n    tag_4:\n      tag_12\n      0x04\n      dup1\n      calldatasize\n      sub\n      dup2\n      add\n      swap1\n      tag_13\n      swap2\n      swap1\n      tag_10\n      jump\t// in\n    tag_13:\n      tag_14\n      jump\t// in\n    tag_12:\n      mload(0x40)\n      tag_15\n      swap3\n      swap2\n      swap1\n      tag_16\n      jump\t// in\n    tag_15:\n      mload(0x40)\n      dup1\n      swap2\n      sub\n      swap1\n      return\n        /* \"voting.sol\":193:233  mapping(address => bool) public hasVoted */\n    tag_5:\n      tag_17\n      0x04\n      dup1\n      calldatasize\n      sub\n      dup2\n      add\n      swap1\n      tag_18\n      swap2\n      swap1\n      tag_19\n      jump\t// in\n    tag_18:\n      tag_20\n      jump\t// in\n    tag_17:\n      mload(0x40)\n      tag_21\n      swap2\n      swap1\n      tag_22\n      jump\t// in\n    tag_21:\n      mload(0x40)\n      dup1\n      swap2\n      sub\n      swap1\n      return\n        /* \"voting.sol\":885:1171  function getProposal(uint index) public view returns (string memory description, uint voteCount) {... */\n    tag_6:\n      tag_23\n      0x04\n      dup1\n      calldatasize\n      sub\n      dup2\n      add\n      swap1\n      tag_24\n      swap2\n      swap1\n      tag_10\n      jump\t// in\n    tag_24:\n      tag_25\n      jump\t// in\n    tag_23:\n      mload(0x40)\n      tag_26\n      swap3\n      swap2\n      swap1\n      tag_16\n      jump\t// in\n    tag_26:\n      mload(0x40)\n      dup1\n      swap2\n      sub\n      swap1\n      return\n        /* \"voting.sol\":1202:1302  function getAllProposals() public view returns (Proposal[] memory) {... */\n    tag_7:\n      tag_27\n      tag_28\n      jump\t// in\n    tag_27:\n      mload(0x40)\n      tag_29\n      swap2\n      swap1\n      tag_30\n      jump\t// in\n    tag_29:\n      mload(0x40)\n      dup1\n      swap2\n      sub\n      swap1\n      return\n        /* \"voting.sol\":572:851  function vote(uint proposalIndex) public {... */\n    tag_11:\n        /* \"voting.sol\":632:640  hasVoted */\n      0x01\n        /* \"voting.sol\":632:652  hasVoted[msg.sender] */\n      0x00\n        /* \"voting.sol\":641:651  msg.sender */\n      caller\n        /* \"voting.sol\":632:652  hasVoted[msg.sender] */\n      0xffffffffffffffffffffffffffffffffffffffff\n      and\n      0xffffffffffffffffffffffffffffffffffffffff\n      and\n      dup2\n      mstore\n      0x20\n      add\n      swap1\n      dup2\n      mstore\n      0x20\n      add\n      0x00\n      keccak256\n      0x00\n      swap1\n      sload\n      swap1\n      0x0100\n      exp\n      swap1\n      div\n      0xff\n      and\n        /* \"voting.sol\":631:652  !hasVoted[msg.sender] */\n      iszero\n        /* \"voting.sol\":623:680  require(!hasVoted[msg.sender], \"Tu voto ya fue recibido\") */\n      tag_32\n      jumpi\n      mload(0x40)\n      0x08c379a000000000000000000000000000000000000000000000000000000000\n      dup2\n      mstore\n      0x04\n      add\n      tag_33\n      swap1\n      tag_34\n      jump\t// in\n    tag_33:\n      mload(0x40)\n      dup1\n      swap2\n      sub\n      swap1\n      revert\n    tag_32:\n        /* \"voting.sol\":714:723  proposals */\n      0x00\n        /* \"voting.sol\":714:730  proposals.length */\n      dup1\n      sload\n      swap1\n      pop\n        /* \"voting.sol\":698:711  proposalIndex */\n      dup2\n        /* \"voting.sol\":698:730  proposalIndex < proposals.length */\n      lt\n        /* \"voting.sol\":690:757  require(proposalIndex < proposals.length, \"La opcion no es valida\") */\n      tag_35\n      jumpi\n      mload(0x40)\n      0x08c379a000000000000000000000000000000000000000000000000000000000\n      dup2\n      mstore\n      0x04\n      add\n      tag_36\n      swap1\n      tag_37\n      jump\t// in\n    tag_36:\n      mload(0x40)\n      dup1\n      swap2\n      sub\n      swap1\n      revert\n    tag_35:\n        /* \"voting.sol\":806:807  1 */\n      0x01\n        /* \"voting.sol\":768:777  proposals */\n      0x00\n        /* \"voting.sol\":778:791  proposalIndex */\n      dup3\n        /* \"voting.sol\":768:792  proposals[proposalIndex] */\n      dup2\n      sload\n      dup2\n      lt\n      tag_38\n      jumpi\n      tag_39\n      tag_40\n      jump\t// in\n    tag_39:\n    tag_38:\n      swap1\n      0x00\n      mstore\n      keccak256(0x00, 0x20)\n      swap1\n      0x02\n      mul\n      add\n        /* \"voting.sol\":768:802  proposals[proposalIndex].voteCount */\n      0x01\n      add\n      0x00\n        /* \"voting.sol\":768:807  proposals[proposalIndex].voteCount += 1 */\n      dup3\n      dup3\n      sload\n      tag_42\n      swap2\n      swap1\n      tag_43\n      jump\t// in\n    tag_42:\n      swap3\n      pop\n      pop\n      dup2\n      swap1\n      sstore\n      pop\n        /* \"voting.sol\":840:844  true */\n      0x01\n        /* \"voting.sol\":817:825  hasVoted */\n      dup1\n        /* \"voting.sol\":817:837  hasVoted[msg.sender] */\n      0x00\n        /* \"voting.sol\":826:836  msg.sender */\n      caller\n        /* \"voting.sol\":817:837  hasVoted[msg.sender] */\n      0xffffffffffffffffffffffffffffffffffffffff\n      and\n      0xffffffffffffffffffffffffffffffffffffffff\n      and\n      dup2\n      mstore\n      0x20\n      add\n      swap1\n      dup2\n      mstore\n      0x20\n      add\n      0x00\n      keccak256\n      0x00\n        /* \"voting.sol\":817:844  hasVoted[msg.sender] = true */\n      0x0100\n      exp\n      dup2\n      sload\n      dup2\n      0xff\n      mul\n      not\n      and\n      swap1\n      dup4\n      iszero\n      iszero\n      mul\n      or\n      swap1\n      sstore\n      pop\n        /* \"voting.sol\":572:851  function vote(uint proposalIndex) public {... */\n      pop\n      jump\t// out\n        /* \"voting.sol\":160:187  Proposal[] public proposals */\n    tag_14:\n      0x00\n      dup2\n      dup2\n      sload\n      dup2\n      lt\n      tag_44\n      jumpi\n      0x00\n      dup1\n      revert\n    tag_44:\n      swap1\n      0x00\n      mstore\n      keccak256(0x00, 0x20)\n      swap1\n      0x02\n      mul\n      add\n      0x00\n      swap2\n      pop\n      swap1\n      pop\n      dup1\n      0x00\n      add\n      dup1\n      sload\n      tag_46\n      swap1\n      tag_47\n      jump\t// in\n    tag_46:\n      dup1\n      0x1f\n      add\n      0x20\n      dup1\n      swap2\n      div\n      mul\n      0x20\n      add\n      mload(0x40)\n      swap1\n      dup2\n      add\n      0x40\n      mstore\n      dup1\n      swap3\n      swap2\n      swap1\n      dup2\n      dup2\n      mstore\n      0x20\n      add\n      dup3\n      dup1\n      sload\n      tag_48\n      swap1\n      tag_47\n      jump\t// in\n    tag_48:\n      dup1\n      iszero\n      tag_49\n      jumpi\n      dup1\n      0x1f\n      lt\n      tag_50\n      jumpi\n      0x0100\n      dup1\n      dup4\n      sload\n      div\n      mul\n      dup4\n      mstore\n      swap2\n      0x20\n      add\n      swap2\n      jump(tag_49)\n    tag_50:\n      dup3\n      add\n      swap2\n      swap1\n      0x00\n      mstore\n      keccak256(0x00, 0x20)\n      swap1\n    tag_51:\n      dup2\n      sload\n      dup2\n      mstore\n      swap1\n      0x01\n      add\n      swap1\n      0x20\n      add\n      dup1\n      dup4\n      gt\n      tag_51\n      jumpi\n      dup3\n      swap1\n      sub\n      0x1f\n      and\n      dup3\n      add\n      swap2\n    tag_49:\n      pop\n      pop\n      pop\n      pop\n      pop\n      swap1\n      dup1\n      0x01\n      add\n      sload\n      swap1\n      pop\n      dup3\n      jump\t// out\n        /* \"voting.sol\":193:233  mapping(address => bool) public hasVoted */\n    tag_20:\n      mstore(0x20, 0x01)\n      dup1\n      0x00\n      mstore\n      keccak256(0x00, 0x40)\n      0x00\n      swap2\n      pop\n      sload\n      swap1\n      0x0100\n      exp\n      swap1\n      div\n      0xff\n      and\n      dup2\n      jump\t// out\n        /* \"voting.sol\":885:1171  function getProposal(uint index) public view returns (string memory description, uint voteCount) {... */\n    tag_25:\n        /* \"voting.sol\":939:964  string memory description */\n      0x60\n        /* \"voting.sol\":966:980  uint voteCount */\n      0x00\n        /* \"voting.sol\":1008:1017  proposals */\n      dup1\n        /* \"voting.sol\":1008:1024  proposals.length */\n      dup1\n      sload\n      swap1\n      pop\n        /* \"voting.sol\":1000:1005  index */\n      dup4\n        /* \"voting.sol\":1000:1024  index < proposals.length */\n      lt\n        /* \"voting.sol\":992:1051  require(index < proposals.length, \"La opcion no es valida\") */\n      tag_53\n      jumpi\n      mload(0x40)\n      0x08c379a000000000000000000000000000000000000000000000000000000000\n      dup2\n      mstore\n      0x04\n      add\n      tag_54\n      swap1\n      tag_37\n      jump\t// in\n    tag_54:\n      mload(0x40)\n      dup1\n      swap2\n      sub\n      swap1\n      revert\n    tag_53:\n        /* \"voting.sol\":1061:1086  Proposal storage proposal */\n      0x00\n        /* \"voting.sol\":1089:1098  proposals */\n      dup1\n        /* \"voting.sol\":1099:1104  index */\n      dup5\n        /* \"voting.sol\":1089:1105  proposals[index] */\n      dup2\n      sload\n      dup2\n      lt\n      tag_55\n      jumpi\n      tag_56\n      tag_40\n      jump\t// in\n    tag_56:\n    tag_55:\n      swap1\n      0x00\n      mstore\n      keccak256(0x00, 0x20)\n      swap1\n      0x02\n      mul\n      add\n        /* \"voting.sol\":1061:1105  Proposal storage proposal = proposals[index] */\n      swap1\n      pop\n        /* \"voting.sol\":1123:1131  proposal */\n      dup1\n        /* \"voting.sol\":1123:1143  proposal.description */\n      0x00\n      add\n        /* \"voting.sol\":1145:1153  proposal */\n      dup2\n        /* \"voting.sol\":1145:1163  proposal.voteCount */\n      0x01\n      add\n      sload\n        /* \"voting.sol\":1115:1164  return (proposal.description, proposal.voteCount) */\n      dup2\n      dup1\n      sload\n      tag_58\n      swap1\n      tag_47\n      jump\t// in\n    tag_58:\n      dup1\n      0x1f\n      add\n      0x20\n      dup1\n      swap2\n      div\n      mul\n      0x20\n      add\n      mload(0x40)\n      swap1\n      dup2\n      add\n      0x40\n      mstore\n      dup1\n      swap3\n      swap2\n      swap1\n      dup2\n      dup2\n      mstore\n      0x20\n      add\n      dup3\n      dup1\n      sload\n      tag_59\n      swap1\n      tag_47\n      jump\t// in\n    tag_59:\n      dup1\n      iszero\n      tag_60\n      jumpi\n      dup1\n      0x1f\n      lt\n      tag_61\n      jumpi\n      0x0100\n      dup1\n      dup4\n      sload\n      div\n      mul\n      dup4\n      mstore\n      swap2\n      0x20\n      add\n      swap2\n      jump(tag_60)\n    tag_61:\n      dup3\n      add\n      swap2\n      swap1\n      0x00\n      mstore\n      keccak256(0x00, 0x20)\n      swap1\n    tag_62:\n      dup2\n      sload\n      dup2\n      mstore\n      swap1\n      0x01\n      add\n      swap1\n      0x20\n      add\n      dup1\n      dup4\n      gt\n      tag_62\n      jumpi\n      dup3\n      swap1\n      sub\n      0x1f\n      and\n      dup3\n      add\n      swap2\n    tag_60:\n      pop\n      pop\n      pop\n      pop\n      pop\n      swap2\n      pop\n      swap3\n      pop\n      swap3\n      pop\n      pop\n        /* \"voting.sol\":885:1171  function getProposal(uint index) public view returns (string memory description, uint voteCount) {... */\n      swap2\n      pop\n      swap2\n      jump\t// out\n        /* \"voting.sol\":1202:1302  function getAllProposals() public view returns (Proposal[] memory) {... */\n    tag_28:\n        /* \"voting.sol\":1250:1267  Proposal[] memory */\n      0x60\n        /* \"voting.sol\":1286:1295  proposals */\n      0x00\n        /* \"voting.sol\":1279:1295  return proposals */\n      dup1\n      sload\n      dup1\n      0x20\n      mul\n      0x20\n      add\n      mload(0x40)\n      swap1\n      dup2\n      add\n      0x40\n      mstore\n      dup1\n      swap3\n      swap2\n      swap1\n      dup2\n      dup2\n      mstore\n      0x20\n      add\n      0x00\n      swap1\n    tag_64:\n      dup3\n      dup3\n      lt\n      iszero\n      tag_65\n      jumpi\n      dup4\n      dup3\n      swap1\n      0x00\n      mstore\n      keccak256(0x00, 0x20)\n      swap1\n      0x02\n      mul\n      add\n      mload(0x40)\n      dup1\n      0x40\n      add\n      0x40\n      mstore\n      swap1\n      dup2\n      0x00\n      dup3\n      add\n      dup1\n      sload\n      tag_67\n      swap1\n      tag_47\n      jump\t// in\n    tag_67:\n      dup1\n      0x1f\n      add\n      0x20\n      dup1\n      swap2\n      div\n      mul\n      0x20\n      add\n      mload(0x40)\n      swap1\n      dup2\n      add\n      0x40\n      mstore\n      dup1\n      swap3\n      swap2\n      swap1\n      dup2\n      dup2\n      mstore\n      0x20\n      add\n      dup3\n      dup1\n      sload\n      tag_68\n      swap1\n      tag_47\n      jump\t// in\n    tag_68:\n      dup1\n      iszero\n      tag_69\n      jumpi\n      dup1\n      0x1f\n      lt\n      tag_70\n      jumpi\n      0x0100\n      dup1\n      dup4\n      sload\n      div\n      mul\n      dup4\n      mstore\n      swap2\n      0x20\n      add\n      swap2\n      jump(tag_69)\n    tag_70:\n      dup3\n      add\n      swap2\n      swap1\n      0x00\n      mstore\n      keccak256(0x00, 0x20)\n      swap1\n    tag_71:\n      dup2\n      sload\n      dup2\n      mstore\n      swap1\n      0x01\n      add\n      swap1\n      0x20\n      add\n      dup1\n      dup4\n      gt\n      tag_71\n      jumpi\n      dup3\n      swap1\n      sub\n      0x1f\n      and\n      dup3\n      add\n      swap2\n    tag_69:\n      pop\n      pop\n      pop\n      pop\n      pop\n      dup2\n      mstore\n      0x20\n      add\n      0x01\n      dup3\n      add\n      sload\n      dup2\n      mstore\n      pop\n      pop\n      dup2\n      mstore\n      0x20\n      add\n      swap1\n      0x01\n      add\n      swap1\n      jump(tag_64)\n    tag_65:\n      pop\n      pop\n      pop\n      pop\n      swap1\n      pop\n        /* \"voting.sol\":1202:1302  function getAllProposals() public view returns (Proposal[] memory) {... */\n      swap1\n      jump\t// out\n        /* \"#utility.yul\":88:205   */\n    tag_73:\n        /* \"#utility.yul\":197:198   */\n      0x00\n        /* \"#utility.yul\":194:195   */\n      dup1\n        /* \"#utility.yul\":187:199   */\n      revert\n        /* \"#utility.yul\":334:411   */\n    tag_75:\n        /* \"#utility.yul\":371:378   */\n      0x00\n        /* \"#utility.yul\":400:405   */\n      dup2\n        /* \"#utility.yul\":389:405   */\n      swap1\n      pop\n        /* \"#utility.yul\":334:411   */\n      swap2\n      swap1\n      pop\n      jump\t// out\n        /* \"#utility.yul\":417:539   */\n    tag_76:\n        /* \"#utility.yul\":490:514   */\n      tag_112\n        /* \"#utility.yul\":508:513   */\n      dup2\n        /* \"#utility.yul\":490:514   */\n      tag_75\n      jump\t// in\n    tag_112:\n        /* \"#utility.yul\":483:488   */\n      dup2\n        /* \"#utility.yul\":480:515   */\n      eq\n        /* \"#utility.yul\":470:533   */\n      tag_113\n      jumpi\n        /* \"#utility.yul\":529:530   */\n      0x00\n        /* \"#utility.yul\":526:527   */\n      dup1\n        /* \"#utility.yul\":519:531   */\n      revert\n        /* \"#utility.yul\":470:533   */\n    tag_113:\n        /* \"#utility.yul\":417:539   */\n      pop\n      jump\t// out\n        /* \"#utility.yul\":545:684   */\n    tag_77:\n        /* \"#utility.yul\":591:596   */\n      0x00\n        /* \"#utility.yul\":629:635   */\n      dup2\n        /* \"#utility.yul\":616:636   */\n      calldataload\n        /* \"#utility.yul\":607:636   */\n      swap1\n      pop\n        /* \"#utility.yul\":645:678   */\n      tag_115\n        /* \"#utility.yul\":672:677   */\n      dup2\n        /* \"#utility.yul\":645:678   */\n      tag_76\n      jump\t// in\n    tag_115:\n        /* \"#utility.yul\":545:684   */\n      swap3\n      swap2\n      pop\n      pop\n      jump\t// out\n        /* \"#utility.yul\":690:1019   */\n    tag_10:\n        /* \"#utility.yul\":749:755   */\n      0x00\n        /* \"#utility.yul\":798:800   */\n      0x20\n        /* \"#utility.yul\":786:795   */\n      dup3\n        /* \"#utility.yul\":777:784   */\n      dup5\n        /* \"#utility.yul\":773:796   */\n      sub\n        /* \"#utility.yul\":769:801   */\n      slt\n        /* \"#utility.yul\":766:885   */\n      iszero\n      tag_117\n      jumpi\n        /* \"#utility.yul\":804:883   */\n      tag_118\n      tag_73\n      jump\t// in\n    tag_118:\n        /* \"#utility.yul\":766:885   */\n    tag_117:\n        /* \"#utility.yul\":924:925   */\n      0x00\n        /* \"#utility.yul\":949:1002   */\n      tag_119\n        /* \"#utility.yul\":994:1001   */\n      dup5\n        /* \"#utility.yul\":985:991   */\n      dup3\n        /* \"#utility.yul\":974:983   */\n      dup6\n        /* \"#utility.yul\":970:992   */\n      add\n        /* \"#utility.yul\":949:1002   */\n      tag_77\n      jump\t// in\n    tag_119:\n        /* \"#utility.yul\":939:1002   */\n      swap2\n      pop\n        /* \"#utility.yul\":895:1012   */\n      pop\n        /* \"#utility.yul\":690:1019   */\n      swap3\n      swap2\n      pop\n      pop\n      jump\t// out\n        /* \"#utility.yul\":1025:1124   */\n    tag_78:\n        /* \"#utility.yul\":1077:1083   */\n      0x00\n        /* \"#utility.yul\":1111:1116   */\n      dup2\n        /* \"#utility.yul\":1105:1117   */\n      mload\n        /* \"#utility.yul\":1095:1117   */\n      swap1\n      pop\n        /* \"#utility.yul\":1025:1124   */\n      swap2\n      swap1\n      pop\n      jump\t// out\n        /* \"#utility.yul\":1130:1299   */\n    tag_79:\n        /* \"#utility.yul\":1214:1225   */\n      0x00\n        /* \"#utility.yul\":1248:1254   */\n      dup3\n        /* \"#utility.yul\":1243:1246   */\n      dup3\n        /* \"#utility.yul\":1236:1255   */\n      mstore\n        /* \"#utility.yul\":1288:1292   */\n      0x20\n        /* \"#utility.yul\":1283:1286   */\n      dup3\n        /* \"#utility.yul\":1279:1293   */\n      add\n        /* \"#utility.yul\":1264:1293   */\n      swap1\n      pop\n        /* \"#utility.yul\":1130:1299   */\n      swap3\n      swap2\n      pop\n      pop\n      jump\t// out\n        /* \"#utility.yul\":1305:1444   */\n    tag_80:\n        /* \"#utility.yul\":1394:1400   */\n      dup3\n        /* \"#utility.yul\":1389:1392   */\n      dup2\n        /* \"#utility.yul\":1384:1387   */\n      dup4\n        /* \"#utility.yul\":1378:1401   */\n      mcopy\n        /* \"#utility.yul\":1435:1436   */\n      0x00\n        /* \"#utility.yul\":1426:1432   */\n      dup4\n        /* \"#utility.yul\":1421:1424   */\n      dup4\n        /* \"#utility.yul\":1417:1433   */\n      add\n        /* \"#utility.yul\":1410:1437   */\n      mstore\n        /* \"#utility.yul\":1305:1444   */\n      pop\n      pop\n      pop\n      jump\t// out\n        /* \"#utility.yul\":1450:1552   */\n    tag_81:\n        /* \"#utility.yul\":1491:1497   */\n      0x00\n        /* \"#utility.yul\":1542:1544   */\n      0x1f\n        /* \"#utility.yul\":1538:1545   */\n      not\n        /* \"#utility.yul\":1533:1535   */\n      0x1f\n        /* \"#utility.yul\":1526:1531   */\n      dup4\n        /* \"#utility.yul\":1522:1536   */\n      add\n        /* \"#utility.yul\":1518:1546   */\n      and\n        /* \"#utility.yul\":1508:1546   */\n      swap1\n      pop\n        /* \"#utility.yul\":1450:1552   */\n      swap2\n      swap1\n      pop\n      jump\t// out\n        /* \"#utility.yul\":1558:1935   */\n    tag_82:\n        /* \"#utility.yul\":1646:1649   */\n      0x00\n        /* \"#utility.yul\":1674:1713   */\n      tag_125\n        /* \"#utility.yul\":1707:1712   */\n      dup3\n        /* \"#utility.yul\":1674:1713   */\n      tag_78\n      jump\t// in\n    tag_125:\n        /* \"#utility.yul\":1729:1800   */\n      tag_126\n        /* \"#utility.yul\":1793:1799   */\n      dup2\n        /* \"#utility.yul\":1788:1791   */\n      dup6\n        /* \"#utility.yul\":1729:1800   */\n      tag_79\n      jump\t// in\n    tag_126:\n        /* \"#utility.yul\":1722:1800   */\n      swap4\n      pop\n        /* \"#utility.yul\":1809:1874   */\n      tag_127\n        /* \"#utility.yul\":1867:1873   */\n      dup2\n        /* \"#utility.yul\":1862:1865   */\n      dup6\n        /* \"#utility.yul\":1855:1859   */\n      0x20\n        /* \"#utility.yul\":1848:1853   */\n      dup7\n        /* \"#utility.yul\":1844:1860   */\n      add\n        /* \"#utility.yul\":1809:1874   */\n      tag_80\n      jump\t// in\n    tag_127:\n        /* \"#utility.yul\":1899:1928   */\n      tag_128\n        /* \"#utility.yul\":1921:1927   */\n      dup2\n        /* \"#utility.yul\":1899:1928   */\n      tag_81\n      jump\t// in\n    tag_128:\n        /* \"#utility.yul\":1894:1897   */\n      dup5\n        /* \"#utility.yul\":1890:1929   */\n      add\n        /* \"#utility.yul\":1883:1929   */\n      swap2\n      pop\n        /* \"#utility.yul\":1650:1935   */\n      pop\n        /* \"#utility.yul\":1558:1935   */\n      swap3\n      swap2\n      pop\n      pop\n      jump\t// out\n        /* \"#utility.yul\":1941:2059   */\n    tag_83:\n        /* \"#utility.yul\":2028:2052   */\n      tag_130\n        /* \"#utility.yul\":2046:2051   */\n      dup2\n        /* \"#utility.yul\":2028:2052   */\n      tag_75\n      jump\t// in\n    tag_130:\n        /* \"#utility.yul\":2023:2026   */\n      dup3\n        /* \"#utility.yul\":2016:2053   */\n      mstore\n        /* \"#utility.yul\":1941:2059   */\n      pop\n      pop\n      jump\t// out\n        /* \"#utility.yul\":2065:2488   */\n    tag_16:\n        /* \"#utility.yul\":2206:2210   */\n      0x00\n        /* \"#utility.yul\":2244:2246   */\n      0x40\n        /* \"#utility.yul\":2233:2242   */\n      dup3\n        /* \"#utility.yul\":2229:2247   */\n      add\n        /* \"#utility.yul\":2221:2247   */\n      swap1\n      pop\n        /* \"#utility.yul\":2293:2302   */\n      dup2\n        /* \"#utility.yul\":2287:2291   */\n      dup2\n        /* \"#utility.yul\":2283:2303   */\n      sub\n        /* \"#utility.yul\":2279:2280   */\n      0x00\n        /* \"#utility.yul\":2268:2277   */\n      dup4\n        /* \"#utility.yul\":2264:2281   */\n      add\n        /* \"#utility.yul\":2257:2304   */\n      mstore\n        /* \"#utility.yul\":2321:2399   */\n      tag_132\n        /* \"#utility.yul\":2394:2398   */\n      dup2\n        /* \"#utility.yul\":2385:2391   */\n      dup6\n        /* \"#utility.yul\":2321:2399   */\n      tag_82\n      jump\t// in\n    tag_132:\n        /* \"#utility.yul\":2313:2399   */\n      swap1\n      pop\n        /* \"#utility.yul\":2409:2481   */\n      tag_133\n        /* \"#utility.yul\":2477:2479   */\n      0x20\n        /* \"#utility.yul\":2466:2475   */\n      dup4\n        /* \"#utility.yul\":2462:2480   */\n      add\n        /* \"#utility.yul\":2453:2459   */\n      dup5\n        /* \"#utility.yul\":2409:2481   */\n      tag_83\n      jump\t// in\n    tag_133:\n        /* \"#utility.yul\":2065:2488   */\n      swap4\n      swap3\n      pop\n      pop\n      pop\n      jump\t// out\n        /* \"#utility.yul\":2494:2620   */\n    tag_84:\n        /* \"#utility.yul\":2531:2538   */\n      0x00\n        /* \"#utility.yul\":2571:2613   */\n      0xffffffffffffffffffffffffffffffffffffffff\n        /* \"#utility.yul\":2564:2569   */\n      dup3\n        /* \"#utility.yul\":2560:2614   */\n      and\n        /* \"#utility.yul\":2549:2614   */\n      swap1\n      pop\n        /* \"#utility.yul\":2494:2620   */\n      swap2\n      swap1\n      pop\n      jump\t// out\n        /* \"#utility.yul\":2626:2722   */\n    tag_85:\n        /* \"#utility.yul\":2663:2670   */\n      0x00\n        /* \"#utility.yul\":2692:2716   */\n      tag_136\n        /* \"#utility.yul\":2710:2715   */\n      dup3\n        /* \"#utility.yul\":2692:2716   */\n      tag_84\n      jump\t// in\n    tag_136:\n        /* \"#utility.yul\":2681:2716   */\n      swap1\n      pop\n        /* \"#utility.yul\":2626:2722   */\n      swap2\n      swap1\n      pop\n      jump\t// out\n        /* \"#utility.yul\":2728:2850   */\n    tag_86:\n        /* \"#utility.yul\":2801:2825   */\n      tag_138\n        /* \"#utility.yul\":2819:2824   */\n      dup2\n        /* \"#utility.yul\":2801:2825   */\n      tag_85\n      jump\t// in\n    tag_138:\n        /* \"#utility.yul\":2794:2799   */\n      dup2\n        /* \"#utility.yul\":2791:2826   */\n      eq\n        /* \"#utility.yul\":2781:2844   */\n      tag_139\n      jumpi\n        /* \"#utility.yul\":2840:2841   */\n      0x00\n        /* \"#utility.yul\":2837:2838   */\n      dup1\n        /* \"#utility.yul\":2830:2842   */\n      revert\n        /* \"#utility.yul\":2781:2844   */\n    tag_139:\n        /* \"#utility.yul\":2728:2850   */\n      pop\n      jump\t// out\n        /* \"#utility.yul\":2856:2995   */\n    tag_87:\n        /* \"#utility.yul\":2902:2907   */\n      0x00\n        /* \"#utility.yul\":2940:2946   */\n      dup2\n        /* \"#utility.yul\":2927:2947   */\n      calldataload\n        /* \"#utility.yul\":2918:2947   */\n      swap1\n      pop\n        /* \"#utility.yul\":2956:2989   */\n      tag_141\n        /* \"#utility.yul\":2983:2988   */\n      dup2\n        /* \"#utility.yul\":2956:2989   */\n      tag_86\n      jump\t// in\n    tag_141:\n        /* \"#utility.yul\":2856:2995   */\n      swap3\n      swap2\n      pop\n      pop\n      jump\t// out\n        /* \"#utility.yul\":3001:3330   */\n    tag_19:\n        /* \"#utility.yul\":3060:3066   */\n      0x00\n        /* \"#utility.yul\":3109:3111   */\n      0x20\n        /* \"#utility.yul\":3097:3106   */\n      dup3\n        /* \"#utility.yul\":3088:3095   */\n      dup5\n        /* \"#utility.yul\":3084:3107   */\n      sub\n        /* \"#utility.yul\":3080:3112   */\n      slt\n        /* \"#utility.yul\":3077:3196   */\n      iszero\n      tag_143\n      jumpi\n        /* \"#utility.yul\":3115:3194   */\n      tag_144\n      tag_73\n      jump\t// in\n    tag_144:\n        /* \"#utility.yul\":3077:3196   */\n    tag_143:\n        /* \"#utility.yul\":3235:3236   */\n      0x00\n        /* \"#utility.yul\":3260:3313   */\n      tag_145\n        /* \"#utility.yul\":3305:3312   */\n      dup5\n        /* \"#utility.yul\":3296:3302   */\n      dup3\n        /* \"#utility.yul\":3285:3294   */\n      dup6\n        /* \"#utility.yul\":3281:3303   */\n      add\n        /* \"#utility.yul\":3260:3313   */\n      tag_87\n      jump\t// in\n    tag_145:\n        /* \"#utility.yul\":3250:3313   */\n      swap2\n      pop\n        /* \"#utility.yul\":3206:3323   */\n      pop\n        /* \"#utility.yul\":3001:3330   */\n      swap3\n      swap2\n      pop\n      pop\n      jump\t// out\n        /* \"#utility.yul\":3336:3426   */\n    tag_88:\n        /* \"#utility.yul\":3370:3377   */\n      0x00\n        /* \"#utility.yul\":3413:3418   */\n      dup2\n        /* \"#utility.yul\":3406:3419   */\n      iszero\n        /* \"#utility.yul\":3399:3420   */\n      iszero\n        /* \"#utility.yul\":3388:3420   */\n      swap1\n      pop\n        /* \"#utility.yul\":3336:3426   */\n      swap2\n      swap1\n      pop\n      jump\t// out\n        /* \"#utility.yul\":3432:3541   */\n    tag_89:\n        /* \"#utility.yul\":3513:3534   */\n      tag_148\n        /* \"#utility.yul\":3528:3533   */\n      dup2\n        /* \"#utility.yul\":3513:3534   */\n      tag_88\n      jump\t// in\n    tag_148:\n        /* \"#utility.yul\":3508:3511   */\n      dup3\n        /* \"#utility.yul\":3501:3535   */\n      mstore\n        /* \"#utility.yul\":3432:3541   */\n      pop\n      pop\n      jump\t// out\n        /* \"#utility.yul\":3547:3757   */\n    tag_22:\n        /* \"#utility.yul\":3634:3638   */\n      0x00\n        /* \"#utility.yul\":3672:3674   */\n      0x20\n        /* \"#utility.yul\":3661:3670   */\n      dup3\n        /* \"#utility.yul\":3657:3675   */\n      add\n        /* \"#utility.yul\":3649:3675   */\n      swap1\n      pop\n        /* \"#utility.yul\":3685:3750   */\n      tag_150\n        /* \"#utility.yul\":3747:3748   */\n      0x00\n        /* \"#utility.yul\":3736:3745   */\n      dup4\n        /* \"#utility.yul\":3732:3749   */\n      add\n        /* \"#utility.yul\":3723:3729   */\n      dup5\n        /* \"#utility.yul\":3685:3750   */\n      tag_89\n      jump\t// in\n    tag_150:\n        /* \"#utility.yul\":3547:3757   */\n      swap3\n      swap2\n      pop\n      pop\n      jump\t// out\n        /* \"#utility.yul\":3763:3900   */\n    tag_90:\n        /* \"#utility.yul\":3853:3859   */\n      0x00\n        /* \"#utility.yul\":3887:3892   */\n      dup2\n        /* \"#utility.yul\":3881:3893   */\n      mload\n        /* \"#utility.yul\":3871:3893   */\n      swap1\n      pop\n        /* \"#utility.yul\":3763:3900   */\n      swap2\n      swap1\n      pop\n      jump\t// out\n        /* \"#utility.yul\":3906:4113   */\n    tag_91:\n        /* \"#utility.yul\":4028:4039   */\n      0x00\n        /* \"#utility.yul\":4062:4068   */\n      dup3\n        /* \"#utility.yul\":4057:4060   */\n      dup3\n        /* \"#utility.yul\":4050:4069   */\n      mstore\n        /* \"#utility.yul\":4102:4106   */\n      0x20\n        /* \"#utility.yul\":4097:4100   */\n      dup3\n        /* \"#utility.yul\":4093:4107   */\n      add\n        /* \"#utility.yul\":4078:4107   */\n      swap1\n      pop\n        /* \"#utility.yul\":3906:4113   */\n      swap3\n      swap2\n      pop\n      pop\n      jump\t// out\n        /* \"#utility.yul\":4119:4274   */\n    tag_92:\n        /* \"#utility.yul\":4209:4213   */\n      0x00\n        /* \"#utility.yul\":4232:4235   */\n      dup2\n        /* \"#utility.yul\":4224:4235   */\n      swap1\n      pop\n        /* \"#utility.yul\":4262:4266   */\n      0x20\n        /* \"#utility.yul\":4257:4260   */\n      dup3\n        /* \"#utility.yul\":4253:4267   */\n      add\n        /* \"#utility.yul\":4245:4267   */\n      swap1\n      pop\n        /* \"#utility.yul\":4119:4274   */\n      swap2\n      swap1\n      pop\n      jump\t// out\n        /* \"#utility.yul\":4280:4439   */\n    tag_93:\n        /* \"#utility.yul\":4354:4365   */\n      0x00\n        /* \"#utility.yul\":4388:4394   */\n      dup3\n        /* \"#utility.yul\":4383:4386   */\n      dup3\n        /* \"#utility.yul\":4376:4395   */\n      mstore\n        /* \"#utility.yul\":4428:4432   */\n      0x20\n        /* \"#utility.yul\":4423:4426   */\n      dup3\n        /* \"#utility.yul\":4419:4433   */\n      add\n        /* \"#utility.yul\":4404:4433   */\n      swap1\n      pop\n        /* \"#utility.yul\":4280:4439   */\n      swap3\n      swap2\n      pop\n      pop\n      jump\t// out\n        /* \"#utility.yul\":4445:4802   */\n    tag_94:\n        /* \"#utility.yul\":4523:4526   */\n      0x00\n        /* \"#utility.yul\":4551:4590   */\n      tag_156\n        /* \"#utility.yul\":4584:4589   */\n      dup3\n        /* \"#utility.yul\":4551:4590   */\n      tag_78\n      jump\t// in\n    tag_156:\n        /* \"#utility.yul\":4606:4667   */\n      tag_157\n        /* \"#utility.yul\":4660:4666   */\n      dup2\n        /* \"#utility.yul\":4655:4658   */\n      dup6\n        /* \"#utility.yul\":4606:4667   */\n      tag_93\n      jump\t// in\n    tag_157:\n        /* \"#utility.yul\":4599:4667   */\n      swap4\n      pop\n        /* \"#utility.yul\":4676:4741   */\n      tag_158\n        /* \"#utility.yul\":4734:4740   */\n      dup2\n        /* \"#utility.yul\":4729:4732   */\n      dup6\n        /* \"#utility.yul\":4722:4726   */\n      0x20\n        /* \"#utility.yul\":4715:4720   */\n      dup7\n        /* \"#utility.yul\":4711:4727   */\n      add\n        /* \"#utility.yul\":4676:4741   */\n      tag_80\n      jump\t// in\n    tag_158:\n        /* \"#utility.yul\":4766:4795   */\n      tag_159\n        /* \"#utility.yul\":4788:4794   */\n      dup2\n        /* \"#utility.yul\":4766:4795   */\n      tag_81\n      jump\t// in\n    tag_159:\n        /* \"#utility.yul\":4761:4764   */\n      dup5\n        /* \"#utility.yul\":4757:4796   */\n      add\n        /* \"#utility.yul\":4750:4796   */\n      swap2\n      pop\n        /* \"#utility.yul\":4527:4802   */\n      pop\n        /* \"#utility.yul\":4445:4802   */\n      swap3\n      swap2\n      pop\n      pop\n      jump\t// out\n        /* \"#utility.yul\":4808:4916   */\n    tag_95:\n        /* \"#utility.yul\":4885:4909   */\n      tag_161\n        /* \"#utility.yul\":4903:4908   */\n      dup2\n        /* \"#utility.yul\":4885:4909   */\n      tag_75\n      jump\t// in\n    tag_161:\n        /* \"#utility.yul\":4880:4883   */\n      dup3\n        /* \"#utility.yul\":4873:4910   */\n      mstore\n        /* \"#utility.yul\":4808:4916   */\n      pop\n      pop\n      jump\t// out\n        /* \"#utility.yul\":4978:5582   */\n    tag_96:\n        /* \"#utility.yul\":5083:5086   */\n      0x00\n        /* \"#utility.yul\":5119:5123   */\n      0x40\n        /* \"#utility.yul\":5114:5117   */\n      dup4\n        /* \"#utility.yul\":5110:5124   */\n      add\n        /* \"#utility.yul\":5213:5217   */\n      0x00\n        /* \"#utility.yul\":5206:5211   */\n      dup4\n        /* \"#utility.yul\":5202:5218   */\n      add\n        /* \"#utility.yul\":5196:5219   */\n      mload\n        /* \"#utility.yul\":5266:5269   */\n      dup5\n        /* \"#utility.yul\":5260:5264   */\n      dup3\n        /* \"#utility.yul\":5256:5270   */\n      sub\n        /* \"#utility.yul\":5249:5253   */\n      0x00\n        /* \"#utility.yul\":5244:5247   */\n      dup7\n        /* \"#utility.yul\":5240:5254   */\n      add\n        /* \"#utility.yul\":5233:5271   */\n      mstore\n        /* \"#utility.yul\":5292:5365   */\n      tag_163\n        /* \"#utility.yul\":5360:5364   */\n      dup3\n        /* \"#utility.yul\":5346:5358   */\n      dup3\n        /* \"#utility.yul\":5292:5365   */\n      tag_94\n      jump\t// in\n    tag_163:\n        /* \"#utility.yul\":5284:5365   */\n      swap2\n      pop\n        /* \"#utility.yul\":5134:5376   */\n      pop\n        /* \"#utility.yul\":5463:5467   */\n      0x20\n        /* \"#utility.yul\":5456:5461   */\n      dup4\n        /* \"#utility.yul\":5452:5468   */\n      add\n        /* \"#utility.yul\":5446:5469   */\n      mload\n        /* \"#utility.yul\":5482:5545   */\n      tag_164\n        /* \"#utility.yul\":5539:5543   */\n      0x20\n        /* \"#utility.yul\":5534:5537   */\n      dup7\n        /* \"#utility.yul\":5530:5544   */\n      add\n        /* \"#utility.yul\":5516:5528   */\n      dup3\n        /* \"#utility.yul\":5482:5545   */\n      tag_95\n      jump\t// in\n    tag_164:\n        /* \"#utility.yul\":5386:5555   */\n      pop\n        /* \"#utility.yul\":5572:5576   */\n      dup1\n        /* \"#utility.yul\":5565:5576   */\n      swap2\n      pop\n        /* \"#utility.yul\":5088:5582   */\n      pop\n        /* \"#utility.yul\":4978:5582   */\n      swap3\n      swap2\n      pop\n      pop\n      jump\t// out\n        /* \"#utility.yul\":5588:5836   */\n    tag_97:\n        /* \"#utility.yul\":5703:5713   */\n      0x00\n        /* \"#utility.yul\":5738:5830   */\n      tag_166\n        /* \"#utility.yul\":5826:5829   */\n      dup4\n        /* \"#utility.yul\":5818:5824   */\n      dup4\n        /* \"#utility.yul\":5738:5830   */\n      tag_96\n      jump\t// in\n    tag_166:\n        /* \"#utility.yul\":5724:5830   */\n      swap1\n      pop\n        /* \"#utility.yul\":5588:5836   */\n      swap3\n      swap2\n      pop\n      pop\n      jump\t// out\n        /* \"#utility.yul\":5842:5978   */\n    tag_98:\n        /* \"#utility.yul\":5935:5939   */\n      0x00\n        /* \"#utility.yul\":5967:5971   */\n      0x20\n        /* \"#utility.yul\":5962:5965   */\n      dup3\n        /* \"#utility.yul\":5958:5972   */\n      add\n        /* \"#utility.yul\":5950:5972   */\n      swap1\n      pop\n        /* \"#utility.yul\":5842:5978   */\n      swap2\n      swap1\n      pop\n      jump\t// out\n        /* \"#utility.yul\":6044:7139   */\n    tag_99:\n        /* \"#utility.yul\":6209:6212   */\n      0x00\n        /* \"#utility.yul\":6238:6315   */\n      tag_169\n        /* \"#utility.yul\":6309:6314   */\n      dup3\n        /* \"#utility.yul\":6238:6315   */\n      tag_90\n      jump\t// in\n    tag_169:\n        /* \"#utility.yul\":6331:6440   */\n      tag_170\n        /* \"#utility.yul\":6433:6439   */\n      dup2\n        /* \"#utility.yul\":6428:6431   */\n      dup6\n        /* \"#utility.yul\":6331:6440   */\n      tag_91\n      jump\t// in\n    tag_170:\n        /* \"#utility.yul\":6324:6440   */\n      swap4\n      pop\n        /* \"#utility.yul\":6466:6469   */\n      dup4\n        /* \"#utility.yul\":6511:6515   */\n      0x20\n        /* \"#utility.yul\":6503:6509   */\n      dup3\n        /* \"#utility.yul\":6499:6516   */\n      mul\n        /* \"#utility.yul\":6494:6497   */\n      dup6\n        /* \"#utility.yul\":6490:6517   */\n      add\n        /* \"#utility.yul\":6541:6620   */\n      tag_171\n        /* \"#utility.yul\":6614:6619   */\n      dup6\n        /* \"#utility.yul\":6541:6620   */\n      tag_92\n      jump\t// in\n    tag_171:\n        /* \"#utility.yul\":6643:6650   */\n      dup1\n        /* \"#utility.yul\":6674:6675   */\n      0x00\n        /* \"#utility.yul\":6659:7094   */\n    tag_172:\n        /* \"#utility.yul\":6684:6690   */\n      dup6\n        /* \"#utility.yul\":6681:6682   */\n      dup2\n        /* \"#utility.yul\":6678:6691   */\n      lt\n        /* \"#utility.yul\":6659:7094   */\n      iszero\n      tag_174\n      jumpi\n        /* \"#utility.yul\":6755:6764   */\n      dup5\n        /* \"#utility.yul\":6749:6753   */\n      dup5\n        /* \"#utility.yul\":6745:6765   */\n      sub\n        /* \"#utility.yul\":6740:6743   */\n      dup10\n        /* \"#utility.yul\":6733:6766   */\n      mstore\n        /* \"#utility.yul\":6806:6812   */\n      dup2\n        /* \"#utility.yul\":6800:6813   */\n      mload\n        /* \"#utility.yul\":6834:6944   */\n      tag_175\n        /* \"#utility.yul\":6939:6943   */\n      dup6\n        /* \"#utility.yul\":6924:6937   */\n      dup3\n        /* \"#utility.yul\":6834:6944   */\n      tag_97\n      jump\t// in\n    tag_175:\n        /* \"#utility.yul\":6826:6944   */\n      swap5\n      pop\n        /* \"#utility.yul\":6967:7050   */\n      tag_176\n        /* \"#utility.yul\":7043:7049   */\n      dup4\n        /* \"#utility.yul\":6967:7050   */\n      tag_98\n      jump\t// in\n    tag_176:\n        /* \"#utility.yul\":6957:7050   */\n      swap3\n      pop\n        /* \"#utility.yul\":7079:7083   */\n      0x20\n        /* \"#utility.yul\":7074:7077   */\n      dup11\n        /* \"#utility.yul\":7070:7084   */\n      add\n        /* \"#utility.yul\":7063:7084   */\n      swap10\n      pop\n        /* \"#utility.yul\":6719:7094   */\n      pop\n        /* \"#utility.yul\":6706:6707   */\n      0x01\n        /* \"#utility.yul\":6703:6704   */\n      dup2\n        /* \"#utility.yul\":6699:6708   */\n      add\n        /* \"#utility.yul\":6694:6708   */\n      swap1\n      pop\n        /* \"#utility.yul\":6659:7094   */\n      jump(tag_172)\n    tag_174:\n        /* \"#utility.yul\":6663:6677   */\n      pop\n        /* \"#utility.yul\":7110:7114   */\n      dup3\n        /* \"#utility.yul\":7103:7114   */\n      swap8\n      pop\n        /* \"#utility.yul\":7130:7133   */\n      dup8\n        /* \"#utility.yul\":7123:7133   */\n      swap6\n      pop\n        /* \"#utility.yul\":6214:7139   */\n      pop\n      pop\n      pop\n      pop\n      pop\n        /* \"#utility.yul\":6044:7139   */\n      swap3\n      swap2\n      pop\n      pop\n      jump\t// out\n        /* \"#utility.yul\":7145:7610   */\n    tag_30:\n        /* \"#utility.yul\":7334:7338   */\n      0x00\n        /* \"#utility.yul\":7372:7374   */\n      0x20\n        /* \"#utility.yul\":7361:7370   */\n      dup3\n        /* \"#utility.yul\":7357:7375   */\n      add\n        /* \"#utility.yul\":7349:7375   */\n      swap1\n      pop\n        /* \"#utility.yul\":7421:7430   */\n      dup2\n        /* \"#utility.yul\":7415:7419   */\n      dup2\n        /* \"#utility.yul\":7411:7431   */\n      sub\n        /* \"#utility.yul\":7407:7408   */\n      0x00\n        /* \"#utility.yul\":7396:7405   */\n      dup4\n        /* \"#utility.yul\":7392:7409   */\n      add\n        /* \"#utility.yul\":7385:7432   */\n      mstore\n        /* \"#utility.yul\":7449:7603   */\n      tag_178\n        /* \"#utility.yul\":7598:7602   */\n      dup2\n        /* \"#utility.yul\":7589:7595   */\n      dup5\n        /* \"#utility.yul\":7449:7603   */\n      tag_99\n      jump\t// in\n    tag_178:\n        /* \"#utility.yul\":7441:7603   */\n      swap1\n      pop\n        /* \"#utility.yul\":7145:7610   */\n      swap3\n      swap2\n      pop\n      pop\n      jump\t// out\n        /* \"#utility.yul\":7616:7789   */\n    tag_100:\n        /* \"#utility.yul\":7756:7781   */\n      0x547520766f746f2079612066756520726563696269646f000000000000000000\n        /* \"#utility.yul\":7752:7753   */\n      0x00\n        /* \"#utility.yul\":7744:7750   */\n      dup3\n        /* \"#utility.yul\":7740:7754   */\n      add\n        /* \"#utility.yul\":7733:7782   */\n      mstore\n        /* \"#utility.yul\":7616:7789   */\n      pop\n      jump\t// out\n        /* \"#utility.yul\":7795:8161   */\n    tag_101:\n        /* \"#utility.yul\":7937:7940   */\n      0x00\n        /* \"#utility.yul\":7958:8025   */\n      tag_181\n        /* \"#utility.yul\":8022:8024   */\n      0x17\n        /* \"#utility.yul\":8017:8020   */\n      dup4\n        /* \"#utility.yul\":7958:8025   */\n      tag_79\n      jump\t// in\n    tag_181:\n        /* \"#utility.yul\":7951:8025   */\n      swap2\n      pop\n        /* \"#utility.yul\":8034:8127   */\n      tag_182\n        /* \"#utility.yul\":8123:8126   */\n      dup3\n        /* \"#utility.yul\":8034:8127   */\n      tag_100\n      jump\t// in\n    tag_182:\n        /* \"#utility.yul\":8152:8154   */\n      0x20\n        /* \"#utility.yul\":8147:8150   */\n      dup3\n        /* \"#utility.yul\":8143:8155   */\n      add\n        /* \"#utility.yul\":8136:8155   */\n      swap1\n      pop\n        /* \"#utility.yul\":7795:8161   */\n      swap2\n      swap1\n      pop\n      jump\t// out\n        /* \"#utility.yul\":8167:8586   */\n    tag_34:\n        /* \"#utility.yul\":8333:8337   */\n      0x00\n        /* \"#utility.yul\":8371:8373   */\n      0x20\n        /* \"#utility.yul\":8360:8369   */\n      dup3\n        /* \"#utility.yul\":8356:8374   */\n      add\n        /* \"#utility.yul\":8348:8374   */\n      swap1\n      pop\n        /* \"#utility.yul\":8420:8429   */\n      dup2\n        /* \"#utility.yul\":8414:8418   */\n      dup2\n        /* \"#utility.yul\":8410:8430   */\n      sub\n        /* \"#utility.yul\":8406:8407   */\n      0x00\n        /* \"#utility.yul\":8395:8404   */\n      dup4\n        /* \"#utility.yul\":8391:8408   */\n      add\n        /* \"#utility.yul\":8384:8431   */\n      mstore\n        /* \"#utility.yul\":8448:8579   */\n      tag_184\n        /* \"#utility.yul\":8574:8578   */\n      dup2\n        /* \"#utility.yul\":8448:8579   */\n      tag_101\n      jump\t// in\n    tag_184:\n        /* \"#utility.yul\":8440:8579   */\n      swap1\n      pop\n        /* \"#utility.yul\":8167:8586   */\n      swap2\n      swap1\n      pop\n      jump\t// out\n        /* \"#utility.yul\":8592:8764   */\n    tag_102:\n        /* \"#utility.yul\":8732:8756   */\n      0x4c61206f7063696f6e206e6f2065732076616c69646100000000000000000000\n        /* \"#utility.yul\":8728:8729   */\n      0x00\n        /* \"#utility.yul\":8720:8726   */\n      dup3\n        /* \"#utility.yul\":8716:8730   */\n      add\n        /* \"#utility.yul\":8709:8757   */\n      mstore\n        /* \"#utility.yul\":8592:8764   */\n      pop\n      jump\t// out\n        /* \"#utility.yul\":8770:9136   */\n    tag_103:\n        /* \"#utility.yul\":8912:8915   */\n      0x00\n        /* \"#utility.yul\":8933:9000   */\n      tag_187\n        /* \"#utility.yul\":8997:8999   */\n      0x16\n        /* \"#utility.yul\":8992:8995   */\n      dup4\n        /* \"#utility.yul\":8933:9000   */\n      tag_79\n      jump\t// in\n    tag_187:\n        /* \"#utility.yul\":8926:9000   */\n      swap2\n      pop\n        /* \"#utility.yul\":9009:9102   */\n      tag_188\n        /* \"#utility.yul\":9098:9101   */\n      dup3\n        /* \"#utility.yul\":9009:9102   */\n      tag_102\n      jump\t// in\n    tag_188:\n        /* \"#utility.yul\":9127:9129   */\n      0x20\n        /* \"#utility.yul\":9122:9125   */\n      dup3\n        /* \"#utility.yul\":9118:9130   */\n      add\n        /* \"#utility.yul\":9111:9130   */\n      swap1\n      pop\n        /* \"#utility.yul\":8770:9136   */\n      swap2\n      swap1\n      pop\n      jump\t// out\n        /* \"#utility.yul\":9142:9561   */\n    tag_37:\n        /* \"#utility.yul\":9308:9312   */\n      0x00\n        /* \"#utility.yul\":9346:9348   */\n      0x20\n        /* \"#utility.yul\":9335:9344   */\n      dup3\n        /* \"#utility.yul\":9331:9349   */\n      add\n        /* \"#utility.yul\":9323:9349   */\n      swap1\n      pop\n        /* \"#utility.yul\":9395:9404   */\n      dup2\n        /* \"#utility.yul\":9389:9393   */\n      dup2\n        /* \"#utility.yul\":9385:9405   */\n      sub\n        /* \"#utility.yul\":9381:9382   */\n      0x00\n        /* \"#utility.yul\":9370:9379   */\n      dup4\n        /* \"#utility.yul\":9366:9383   */\n      add\n        /* \"#utility.yul\":9359:9406   */\n      mstore\n        /* \"#utility.yul\":9423:9554   */\n      tag_190\n        /* \"#utility.yul\":9549:9553   */\n      dup2\n        /* \"#utility.yul\":9423:9554   */\n      tag_103\n      jump\t// in\n    tag_190:\n        /* \"#utility.yul\":9415:9554   */\n      swap1\n      pop\n        /* \"#utility.yul\":9142:9561   */\n      swap2\n      swap1\n      pop\n      jump\t// out\n        /* \"#utility.yul\":9567:9747   */\n    tag_40:\n        /* \"#utility.yul\":9615:9692   */\n      0x4e487b7100000000000000000000000000000000000000000000000000000000\n        /* \"#utility.yul\":9612:9613   */\n      0x00\n        /* \"#utility.yul\":9605:9693   */\n      mstore\n        /* \"#utility.yul\":9712:9716   */\n      0x32\n        /* \"#utility.yul\":9709:9710   */\n      0x04\n        /* \"#utility.yul\":9702:9717   */\n      mstore\n        /* \"#utility.yul\":9736:9740   */\n      0x24\n        /* \"#utility.yul\":9733:9734   */\n      0x00\n        /* \"#utility.yul\":9726:9741   */\n      revert\n        /* \"#utility.yul\":9753:9933   */\n    tag_104:\n        /* \"#utility.yul\":9801:9878   */\n      0x4e487b7100000000000000000000000000000000000000000000000000000000\n        /* \"#utility.yul\":9798:9799   */\n      0x00\n        /* \"#utility.yul\":9791:9879   */\n      mstore\n        /* \"#utility.yul\":9898:9902   */\n      0x11\n        /* \"#utility.yul\":9895:9896   */\n      0x04\n        /* \"#utility.yul\":9888:9903   */\n      mstore\n        /* \"#utility.yul\":9922:9926   */\n      0x24\n        /* \"#utility.yul\":9919:9920   */\n      0x00\n        /* \"#utility.yul\":9912:9927   */\n      revert\n        /* \"#utility.yul\":9939:10130   */\n    tag_43:\n        /* \"#utility.yul\":9979:9982   */\n      0x00\n        /* \"#utility.yul\":9998:10018   */\n      tag_194\n        /* \"#utility.yul\":10016:10017   */\n      dup3\n        /* \"#utility.yul\":9998:10018   */\n      tag_75\n      jump\t// in\n    tag_194:\n        /* \"#utility.yul\":9993:10018   */\n      swap2\n      pop\n        /* \"#utility.yul\":10032:10052   */\n      tag_195\n        /* \"#utility.yul\":10050:10051   */\n      dup4\n        /* \"#utility.yul\":10032:10052   */\n      tag_75\n      jump\t// in\n    tag_195:\n        /* \"#utility.yul\":10027:10052   */\n      swap3\n      pop\n        /* \"#utility.yul\":10075:10076   */\n      dup3\n        /* \"#utility.yul\":10072:10073   */\n      dup3\n        /* \"#utility.yul\":10068:10077   */\n      add\n        /* \"#utility.yul\":10061:10077   */\n      swap1\n      pop\n        /* \"#utility.yul\":10096:10099   */\n      dup1\n        /* \"#utility.yul\":10093:10094   */\n      dup3\n        /* \"#utility.yul\":10090:10100   */\n      gt\n        /* \"#utility.yul\":10087:10123   */\n      iszero\n      tag_196\n      jumpi\n        /* \"#utility.yul\":10103:10121   */\n      tag_197\n      tag_104\n      jump\t// in\n    tag_197:\n        /* \"#utility.yul\":10087:10123   */\n    tag_196:\n        /* \"#utility.yul\":9939:10130   */\n      swap3\n      swap2\n      pop\n      pop\n      jump\t// out\n        /* \"#utility.yul\":10136:10316   */\n    tag_105:\n        /* \"#utility.yul\":10184:10261   */\n      0x4e487b7100000000000000000000000000000000000000000000000000000000\n        /* \"#utility.yul\":10181:10182   */\n      0x00\n        /* \"#utility.yul\":10174:10262   */\n      mstore\n        /* \"#utility.yul\":10281:10285   */\n      0x22\n        /* \"#utility.yul\":10278:10279   */\n      0x04\n        /* \"#utility.yul\":10271:10286   */\n      mstore\n        /* \"#utility.yul\":10305:10309   */\n      0x24\n        /* \"#utility.yul\":10302:10303   */\n      0x00\n        /* \"#utility.yul\":10295:10310   */\n      revert\n        /* \"#utility.yul\":10322:10642   */\n    tag_47:\n        /* \"#utility.yul\":10366:10372   */\n      0x00\n        /* \"#utility.yul\":10403:10404   */\n      0x02\n        /* \"#utility.yul\":10397:10401   */\n      dup3\n        /* \"#utility.yul\":10393:10405   */\n      div\n        /* \"#utility.yul\":10383:10405   */\n      swap1\n      pop\n        /* \"#utility.yul\":10450:10451   */\n      0x01\n        /* \"#utility.yul\":10444:10448   */\n      dup3\n        /* \"#utility.yul\":10440:10452   */\n      and\n        /* \"#utility.yul\":10471:10489   */\n      dup1\n        /* \"#utility.yul\":10461:10542   */\n      tag_200\n      jumpi\n        /* \"#utility.yul\":10527:10531   */\n      0x7f\n        /* \"#utility.yul\":10519:10525   */\n      dup3\n        /* \"#utility.yul\":10515:10532   */\n      and\n        /* \"#utility.yul\":10505:10532   */\n      swap2\n      pop\n        /* \"#utility.yul\":10461:10542   */\n    tag_200:\n        /* \"#utility.yul\":10589:10591   */\n      0x20\n        /* \"#utility.yul\":10581:10587   */\n      dup3\n        /* \"#utility.yul\":10578:10592   */\n      lt\n        /* \"#utility.yul\":10558:10576   */\n      dup2\n        /* \"#utility.yul\":10555:10593   */\n      sub\n        /* \"#utility.yul\":10552:10636   */\n      tag_201\n      jumpi\n        /* \"#utility.yul\":10608:10626   */\n      tag_202\n      tag_105\n      jump\t// in\n    tag_202:\n        /* \"#utility.yul\":10552:10636   */\n    tag_201:\n        /* \"#utility.yul\":10373:10642   */\n      pop\n        /* \"#utility.yul\":10322:10642   */\n      swap2\n      swap1\n      pop\n      jump\t// out\n\n    auxdata: 0xa264697066735822122090fc894d057aedaf04d09675b1b309050d8fa428194bb715391e00c1efda043e64736f6c634300081a0033\n}\n",
				"bytecode": {
					"linkReferences": {},
					"object": "608060405234801561000f575f80fd5b506040516110c63803806110c6833981810160405281019061003191906102f5565b5f5b81518110156100bf575f604051806040016040528084848151811061005b5761005a61033c565b5b602002602001015181526020015f815250908060018154018082558091505060019003905f5260205f2090600202015f909190919091505f820151815f0190816100a59190610576565b506020820151816001015550508080600101915050610033565b5050610645565b5f604051905090565b5f80fd5b5f80fd5b5f80fd5b5f601f19601f8301169050919050565b7f4e487b71000000000000000000000000000000000000000000000000000000005f52604160045260245ffd5b610121826100db565b810181811067ffffffffffffffff821117156101405761013f6100eb565b5b80604052505050565b5f6101526100c6565b905061015e8282610118565b919050565b5f67ffffffffffffffff82111561017d5761017c6100eb565b5b602082029050602081019050919050565b5f80fd5b5f80fd5b5f67ffffffffffffffff8211156101b0576101af6100eb565b5b6101b9826100db565b9050602081019050919050565b8281835e5f83830152505050565b5f6101e66101e184610196565b610149565b90508281526020810184848401111561020257610201610192565b5b61020d8482856101c6565b509392505050565b5f82601f830112610229576102286100d7565b5b81516102398482602086016101d4565b91505092915050565b5f61025461024f84610163565b610149565b905080838252602082019050602084028301858111156102775761027661018e565b5b835b818110156102be57805167ffffffffffffffff81111561029c5761029b6100d7565b5b8086016102a98982610215565b85526020850194505050602081019050610279565b5050509392505050565b5f82601f8301126102dc576102db6100d7565b5b81516102ec848260208601610242565b91505092915050565b5f6020828403121561030a576103096100cf565b5b5f82015167ffffffffffffffff811115610327576103266100d3565b5b610333848285016102c8565b91505092915050565b7f4e487b71000000000000000000000000000000000000000000000000000000005f52603260045260245ffd5b5f81519050919050565b7f4e487b71000000000000000000000000000000000000000000000000000000005f52602260045260245ffd5b5f60028204905060018216806103b757607f821691505b6020821081036103ca576103c9610373565b5b50919050565b5f819050815f5260205f209050919050565b5f6020601f8301049050919050565b5f82821b905092915050565b5f6008830261042c7fffffffffffffffffffffffffffffffffffffffffffffffffffffffffffffffff826103f1565b61043686836103f1565b95508019841693508086168417925050509392505050565b5f819050919050565b5f819050919050565b5f61047a6104756104708461044e565b610457565b61044e565b9050919050565b5f819050919050565b61049383610460565b6104a761049f82610481565b8484546103fd565b825550505050565b5f90565b6104bb6104af565b6104c681848461048a565b505050565b5b818110156104e9576104de5f826104b3565b6001810190506104cc565b5050565b601f82111561052e576104ff816103d0565b610508846103e2565b81016020851015610517578190505b61052b610523856103e2565b8301826104cb565b50505b505050565b5f82821c905092915050565b5f61054e5f1984600802610533565b1980831691505092915050565b5f610566838361053f565b9150826002028217905092915050565b61057f82610369565b67ffffffffffffffff811115610598576105976100eb565b5b6105a282546103a0565b6105ad8282856104ed565b5f60209050601f8311600181146105de575f84156105cc578287015190505b6105d6858261055b565b86555061063d565b601f1984166105ec866103d0565b5f5b82811015610613578489015182556001820191506020850194506020810190506105ee565b86831015610630578489015161062c601f89168261053f565b8355505b6001600288020188555050505b505050505050565b610a74806106525f395ff3fe608060405234801561000f575f80fd5b5060043610610055575f3560e01c80630121b93f14610059578063013cf08b1461007557806309eef43e146100a6578063c7f758a8146100d6578063cceb68f514610107575b5f80fd5b610073600480360381019061006e9190610588565b610125565b005b61008f600480360381019061008a9190610588565b610285565b60405161009d929190610632565b60405180910390f35b6100c060048036038101906100bb91906106ba565b610339565b6040516100cd91906106ff565b60405180910390f35b6100f060048036038101906100eb9190610588565b610356565b6040516100fe929190610632565b60405180910390f35b61010f61045d565b60405161011c9190610864565b60405180910390f35b60015f3373ffffffffffffffffffffffffffffffffffffffff1673ffffffffffffffffffffffffffffffffffffffff1681526020019081526020015f205f9054906101000a900460ff16156101af576040517f08c379a00000000000000000000000000000000000000000000000000000000081526004016101a6906108ce565b60405180910390fd5b5f8054905081106101f5576040517f08c379a00000000000000000000000000000000000000000000000000000000081526004016101ec90610936565b60405180910390fd5b60015f828154811061020a57610209610954565b5b905f5260205f2090600202016001015f82825461022791906109ae565b925050819055506001805f3373ffffffffffffffffffffffffffffffffffffffff1673ffffffffffffffffffffffffffffffffffffffff1681526020019081526020015f205f6101000a81548160ff02191690831515021790555050565b5f8181548110610293575f80fd5b905f5260205f2090600202015f91509050805f0180546102b290610a0e565b80601f01602080910402602001604051908101604052809291908181526020018280546102de90610a0e565b80156103295780601f1061030057610100808354040283529160200191610329565b820191905f5260205f20905b81548152906001019060200180831161030c57829003601f168201915b5050505050908060010154905082565b6001602052805f5260405f205f915054906101000a900460ff1681565b60605f8080549050831061039f576040517f08c379a000000000000000000000000000000000000000000000000000000000815260040161039690610936565b60405180910390fd5b5f8084815481106103b3576103b2610954565b5b905f5260205f2090600202019050805f0181600101548180546103d590610a0e565b80601f016020809104026020016040519081016040528092919081815260200182805461040190610a0e565b801561044c5780601f106104235761010080835404028352916020019161044c565b820191905f5260205f20905b81548152906001019060200180831161042f57829003601f168201915b505050505091509250925050915091565b60605f805480602002602001604051908101604052809291908181526020015f905b82821015610548578382905f5260205f2090600202016040518060400160405290815f820180546104af90610a0e565b80601f01602080910402602001604051908101604052809291908181526020018280546104db90610a0e565b80156105265780601f106104fd57610100808354040283529160200191610526565b820191905f5260205f20905b81548152906001019060200180831161050957829003601f168201915b505050505081526020016001820154815250508152602001906001019061047f565b50505050905090565b5f80fd5b5f819050919050565b61056781610555565b8114610571575f80fd5b50565b5f813590506105828161055e565b92915050565b5f6020828403121561059d5761059c610551565b5b5f6105aa84828501610574565b91505092915050565b5f81519050919050565b5f82825260208201905092915050565b8281835e5f83830152505050565b5f601f19601f8301169050919050565b5f6105f5826105b3565b6105ff81856105bd565b935061060f8185602086016105cd565b610618816105db565b840191505092915050565b61062c81610555565b82525050565b5f6040820190508181035f83015261064a81856105eb565b90506106596020830184610623565b9392505050565b5f73ffffffffffffffffffffffffffffffffffffffff82169050919050565b5f61068982610660565b9050919050565b6106998161067f565b81146106a3575f80fd5b50565b5f813590506106b481610690565b92915050565b5f602082840312156106cf576106ce610551565b5b5f6106dc848285016106a6565b91505092915050565b5f8115159050919050565b6106f9816106e5565b82525050565b5f6020820190506107125f8301846106f0565b92915050565b5f81519050919050565b5f82825260208201905092915050565b5f819050602082019050919050565b5f82825260208201905092915050565b5f61075b826105b3565b6107658185610741565b93506107758185602086016105cd565b61077e816105db565b840191505092915050565b61079281610555565b82525050565b5f604083015f8301518482035f8601526107b28282610751565b91505060208301516107c76020860182610789565b508091505092915050565b5f6107dd8383610798565b905092915050565b5f602082019050919050565b5f6107fb82610718565b6108058185610722565b93508360208202850161081785610732565b805f5b85811015610852578484038952815161083385826107d2565b945061083e836107e5565b925060208a0199505060018101905061081a565b50829750879550505050505092915050565b5f6020820190508181035f83015261087c81846107f1565b905092915050565b7f547520766f746f2079612066756520726563696269646f0000000000000000005f82015250565b5f6108b86017836105bd565b91506108c382610884565b602082019050919050565b5f6020820190508181035f8301526108e5816108ac565b9050919050565b7f4c61206f7063696f6e206e6f2065732076616c696461000000000000000000005f82015250565b5f6109206016836105bd565b915061092b826108ec565b602082019050919050565b5f6020820190508181035f83015261094d81610914565b9050919050565b7f4e487b71000000000000000000000000000000000000000000000000000000005f52603260045260245ffd5b7f4e487b71000000000000000000000000000000000000000000000000000000005f52601160045260245ffd5b5f6109b882610555565b91506109c383610555565b92508282019050808211156109db576109da610981565b5b92915050565b7f4e487b71000000000000000000000000000000000000000000000000000000005f52602260045260245ffd5b5f6002820490506001821680610a2557607f821691505b602082108103610a3857610a376109e1565b5b5091905056fea264697066735822122090fc894d057aedaf04d09675b1b309050d8fa428194bb715391e00c1efda043e64736f6c634300081a0033",
					"opcodes": "PUSH1 0x80 PUSH1 0x40 MSTORE CALLVALUE DUP1 ISZERO PUSH2 0xF JUMPI PUSH0 DUP1 REVERT JUMPDEST POP PUSH1 0x40 MLOAD PUSH2 0x10C6 CODESIZE SUB DUP1 PUSH2 0x10C6 DUP4 CODECOPY DUP2 DUP2 ADD PUSH1 0x40 MSTORE DUP2 ADD SWAP1 PUSH2 0x31 SWAP2 SWAP1 PUSH2 0x2F5 JUMP JUMPDEST PUSH0 JUMPDEST DUP2 MLOAD DUP2 LT ISZERO PUSH2 0xBF JUMPI PUSH0 PUSH1 0x40 MLOAD DUP1 PUSH1 0x40 ADD PUSH1 0x40 MSTORE DUP1 DUP5 DUP5 DUP2 MLOAD DUP2 LT PUSH2 0x5B JUMPI PUSH2 0x5A PUSH2 0x33C JUMP JUMPDEST JUMPDEST PUSH1 0x20 MUL PUSH1 0x20 ADD ADD MLOAD DUP2 MSTORE PUSH1 0x20 ADD PUSH0 DUP2 MSTORE POP SWAP1 DUP1 PUSH1 0x1 DUP2 SLOAD ADD DUP1 DUP3 SSTORE DUP1 SWAP2 POP POP PUSH1 0x1 SWAP1 SUB SWAP1 PUSH0 MSTORE PUSH1 0x20 PUSH0 KECCAK256 SWAP1 PUSH1 0x2 MUL ADD PUSH0 SWAP1 SWAP2 SWAP1 SWAP2 SWAP1 SWAP2 POP PUSH0 DUP3 ADD MLOAD DUP2 PUSH0 ADD SWAP1 DUP2 PUSH2 0xA5 SWAP2 SWAP1 PUSH2 0x576 JUMP JUMPDEST POP PUSH1 0x20 DUP3 ADD MLOAD DUP2 PUSH1 0x1 ADD SSTORE POP POP DUP1 DUP1 PUSH1 0x1 ADD SWAP2 POP POP PUSH2 0x33 JUMP JUMPDEST POP POP PUSH2 0x645 JUMP JUMPDEST PUSH0 PUSH1 0x40 MLOAD SWAP1 POP SWAP1 JUMP JUMPDEST PUSH0 DUP1 REVERT JUMPDEST PUSH0 DUP1 REVERT JUMPDEST PUSH0 DUP1 REVERT JUMPDEST PUSH0 PUSH1 0x1F NOT PUSH1 0x1F DUP4 ADD AND SWAP1 POP SWAP2 SWAP1 POP JUMP JUMPDEST PUSH32 0x4E487B7100000000000000000000000000000000000000000000000000000000 PUSH0 MSTORE PUSH1 0x41 PUSH1 0x4 MSTORE PUSH1 0x24 PUSH0 REVERT JUMPDEST PUSH2 0x121 DUP3 PUSH2 0xDB JUMP JUMPDEST DUP2 ADD DUP2 DUP2 LT PUSH8 0xFFFFFFFFFFFFFFFF DUP3 GT OR ISZERO PUSH2 0x140 JUMPI PUSH2 0x13F PUSH2 0xEB JUMP JUMPDEST JUMPDEST DUP1 PUSH1 0x40 MSTORE POP POP POP JUMP JUMPDEST PUSH0 PUSH2 0x152 PUSH2 0xC6 JUMP JUMPDEST SWAP1 POP PUSH2 0x15E DUP3 DUP3 PUSH2 0x118 JUMP JUMPDEST SWAP2 SWAP1 POP JUMP JUMPDEST PUSH0 PUSH8 0xFFFFFFFFFFFFFFFF DUP3 GT ISZERO PUSH2 0x17D JUMPI PUSH2 0x17C PUSH2 0xEB JUMP JUMPDEST JUMPDEST PUSH1 0x20 DUP3 MUL SWAP1 POP PUSH1 0x20 DUP2 ADD SWAP1 POP SWAP2 SWAP1 POP JUMP JUMPDEST PUSH0 DUP1 REVERT JUMPDEST PUSH0 DUP1 REVERT JUMPDEST PUSH0 PUSH8 0xFFFFFFFFFFFFFFFF DUP3 GT ISZERO PUSH2 0x1B0 JUMPI PUSH2 0x1AF PUSH2 0xEB JUMP JUMPDEST JUMPDEST PUSH2 0x1B9 DUP3 PUSH2 0xDB JUMP JUMPDEST SWAP1 POP PUSH1 0x20 DUP2 ADD SWAP1 POP SWAP2 SWAP1 POP JUMP JUMPDEST DUP3 DUP2 DUP4 MCOPY PUSH0 DUP4 DUP4 ADD MSTORE POP POP POP JUMP JUMPDEST PUSH0 PUSH2 0x1E6 PUSH2 0x1E1 DUP5 PUSH2 0x196 JUMP JUMPDEST PUSH2 0x149 JUMP JUMPDEST SWAP1 POP DUP3 DUP2 MSTORE PUSH1 0x20 DUP2 ADD DUP5 DUP5 DUP5 ADD GT ISZERO PUSH2 0x202 JUMPI PUSH2 0x201 PUSH2 0x192 JUMP JUMPDEST JUMPDEST PUSH2 0x20D DUP5 DUP3 DUP6 PUSH2 0x1C6 JUMP JUMPDEST POP SWAP4 SWAP3 POP POP POP JUMP JUMPDEST PUSH0 DUP3 PUSH1 0x1F DUP4 ADD SLT PUSH2 0x229 JUMPI PUSH2 0x228 PUSH2 0xD7 JUMP JUMPDEST JUMPDEST DUP2 MLOAD PUSH2 0x239 DUP5 DUP3 PUSH1 0x20 DUP7 ADD PUSH2 0x1D4 JUMP JUMPDEST SWAP2 POP POP SWAP3 SWAP2 POP POP JUMP JUMPDEST PUSH0 PUSH2 0x254 PUSH2 0x24F DUP5 PUSH2 0x163 JUMP JUMPDEST PUSH2 0x149 JUMP JUMPDEST SWAP1 POP DUP1 DUP4 DUP3 MSTORE PUSH1 0x20 DUP3 ADD SWAP1 POP PUSH1 0x20 DUP5 MUL DUP4 ADD DUP6 DUP2 GT ISZERO PUSH2 0x277 JUMPI PUSH2 0x276 PUSH2 0x18E JUMP JUMPDEST JUMPDEST DUP4 JUMPDEST DUP2 DUP2 LT ISZERO PUSH2 0x2BE JUMPI DUP1 MLOAD PUSH8 0xFFFFFFFFFFFFFFFF DUP2 GT ISZERO PUSH2 0x29C JUMPI PUSH2 0x29B PUSH2 0xD7 JUMP JUMPDEST JUMPDEST DUP1 DUP7 ADD PUSH2 0x2A9 DUP10 DUP3 PUSH2 0x215 JUMP JUMPDEST DUP6 MSTORE PUSH1 0x20 DUP6 ADD SWAP5 POP POP POP PUSH1 0x20 DUP2 ADD SWAP1 POP PUSH2 0x279 JUMP JUMPDEST POP POP POP SWAP4 SWAP3 POP POP POP JUMP JUMPDEST PUSH0 DUP3 PUSH1 0x1F DUP4 ADD SLT PUSH2 0x2DC JUMPI PUSH2 0x2DB PUSH2 0xD7 JUMP JUMPDEST JUMPDEST DUP2 MLOAD PUSH2 0x2EC DUP5 DUP3 PUSH1 0x20 DUP7 ADD PUSH2 0x242 JUMP JUMPDEST SWAP2 POP POP SWAP3 SWAP2 POP POP JUMP JUMPDEST PUSH0 PUSH1 0x20 DUP3 DUP5 SUB SLT ISZERO PUSH2 0x30A JUMPI PUSH2 0x309 PUSH2 0xCF JUMP JUMPDEST JUMPDEST PUSH0 DUP3 ADD MLOAD PUSH8 0xFFFFFFFFFFFFFFFF DUP2 GT ISZERO PUSH2 0x327 JUMPI PUSH2 0x326 PUSH2 0xD3 JUMP JUMPDEST JUMPDEST PUSH2 0x333 DUP5 DUP3 DUP6 ADD PUSH2 0x2C8 JUMP JUMPDEST SWAP2 POP POP SWAP3 SWAP2 POP POP JUMP JUMPDEST PUSH32 0x4E487B7100000000000000000000000000000000000000000000000000000000 PUSH0 MSTORE PUSH1 0x32 PUSH1 0x4 MSTORE PUSH1 0x24 PUSH0 REVERT JUMPDEST PUSH0 DUP2 MLOAD SWAP1 POP SWAP2 SWAP1 POP JUMP JUMPDEST PUSH32 0x4E487B7100000000000000000000000000000000000000000000000000000000 PUSH0 MSTORE PUSH1 0x22 PUSH1 0x4 MSTORE PUSH1 0x24 PUSH0 REVERT JUMPDEST PUSH0 PUSH1 0x2 DUP3 DIV SWAP1 POP PUSH1 0x1 DUP3 AND DUP1 PUSH2 0x3B7 JUMPI PUSH1 0x7F DUP3 AND SWAP2 POP JUMPDEST PUSH1 0x20 DUP3 LT DUP2 SUB PUSH2 0x3CA JUMPI PUSH2 0x3C9 PUSH2 0x373 JUMP JUMPDEST JUMPDEST POP SWAP2 SWAP1 POP JUMP JUMPDEST PUSH0 DUP2 SWAP1 POP DUP2 PUSH0 MSTORE PUSH1 0x20 PUSH0 KECCAK256 SWAP1 POP SWAP2 SWAP1 POP JUMP JUMPDEST PUSH0 PUSH1 0x20 PUSH1 0x1F DUP4 ADD DIV SWAP1 POP SWAP2 SWAP1 POP JUMP JUMPDEST PUSH0 DUP3 DUP3 SHL SWAP1 POP SWAP3 SWAP2 POP POP JUMP JUMPDEST PUSH0 PUSH1 0x8 DUP4 MUL PUSH2 0x42C PUSH32 0xFFFFFFFFFFFFFFFFFFFFFFFFFFFFFFFFFFFFFFFFFFFFFFFFFFFFFFFFFFFFFFFF DUP3 PUSH2 0x3F1 JUMP JUMPDEST PUSH2 0x436 DUP7 DUP4 PUSH2 0x3F1 JUMP JUMPDEST SWAP6 POP DUP1 NOT DUP5 AND SWAP4 POP DUP1 DUP7 AND DUP5 OR SWAP3 POP POP POP SWAP4 SWAP3 POP POP POP JUMP JUMPDEST PUSH0 DUP2 SWAP1 POP SWAP2 SWAP1 POP JUMP JUMPDEST PUSH0 DUP2 SWAP1 POP SWAP2 SWAP1 POP JUMP JUMPDEST PUSH0 PUSH2 0x47A PUSH2 0x475 PUSH2 0x470 DUP5 PUSH2 0x44E JUMP JUMPDEST PUSH2 0x457 JUMP JUMPDEST PUSH2 0x44E JUMP JUMPDEST SWAP1 POP SWAP2 SWAP1 POP JUMP JUMPDEST PUSH0 DUP2 SWAP1 POP SWAP2 SWAP1 POP JUMP JUMPDEST PUSH2 0x493 DUP4 PUSH2 0x460 JUMP JUMPDEST PUSH2 0x4A7 PUSH2 0x49F DUP3 PUSH2 0x481 JUMP JUMPDEST DUP5 DUP5 SLOAD PUSH2 0x3FD JUMP JUMPDEST DUP3 SSTORE POP POP POP POP JUMP JUMPDEST PUSH0 SWAP1 JUMP JUMPDEST PUSH2 0x4BB PUSH2 0x4AF JUMP JUMPDEST PUSH2 0x4C6 DUP2 DUP5 DUP5 PUSH2 0x48A JUMP JUMPDEST POP POP POP JUMP JUMPDEST JUMPDEST DUP2 DUP2 LT ISZERO PUSH2 0x4E9 JUMPI PUSH2 0x4DE PUSH0 DUP3 PUSH2 0x4B3 JUMP JUMPDEST PUSH1 0x1 DUP2 ADD SWAP1 POP PUSH2 0x4CC JUMP JUMPDEST POP POP JUMP JUMPDEST PUSH1 0x1F DUP3 GT ISZERO PUSH2 0x52E JUMPI PUSH2 0x4FF DUP2 PUSH2 0x3D0 JUMP JUMPDEST PUSH2 0x508 DUP5 PUSH2 0x3E2 JUMP JUMPDEST DUP2 ADD PUSH1 0x20 DUP6 LT ISZERO PUSH2 0x517 JUMPI DUP2 SWAP1 POP JUMPDEST PUSH2 0x52B PUSH2 0x523 DUP6 PUSH2 0x3E2 JUMP JUMPDEST DUP4 ADD DUP3 PUSH2 0x4CB JUMP JUMPDEST POP POP JUMPDEST POP POP POP JUMP JUMPDEST PUSH0 DUP3 DUP3 SHR SWAP1 POP SWAP3 SWAP2 POP POP JUMP JUMPDEST PUSH0 PUSH2 0x54E PUSH0 NOT DUP5 PUSH1 0x8 MUL PUSH2 0x533 JUMP JUMPDEST NOT DUP1 DUP4 AND SWAP2 POP POP SWAP3 SWAP2 POP POP JUMP JUMPDEST PUSH0 PUSH2 0x566 DUP4 DUP4 PUSH2 0x53F JUMP JUMPDEST SWAP2 POP DUP3 PUSH1 0x2 MUL DUP3 OR SWAP1 POP SWAP3 SWAP2 POP POP JUMP JUMPDEST PUSH2 0x57F DUP3 PUSH2 0x369 JUMP JUMPDEST PUSH8 0xFFFFFFFFFFFFFFFF DUP2 GT ISZERO PUSH2 0x598 JUMPI PUSH2 0x597 PUSH2 0xEB JUMP JUMPDEST JUMPDEST PUSH2 0x5A2 DUP3 SLOAD PUSH2 0x3A0 JUMP JUMPDEST PUSH2 0x5AD DUP3 DUP3 DUP6 PUSH2 0x4ED JUMP JUMPDEST PUSH0 PUSH1 0x20 SWAP1 POP PUSH1 0x1F DUP4 GT PUSH1 0x1 DUP2 EQ PUSH2 0x5DE JUMPI PUSH0 DUP5 ISZERO PUSH2 0x5CC JUMPI DUP3 DUP8 ADD MLOAD SWAP1 POP JUMPDEST PUSH2 0x5D6 DUP6 DUP3 PUSH2 0x55B JUMP JUMPDEST DUP7 SSTORE POP PUSH2 0x63D JUMP JUMPDEST PUSH1 0x1F NOT DUP5 AND PUSH2 0x5EC DUP7 PUSH2 0x3D0 JUMP JUMPDEST PUSH0 JUMPDEST DUP3 DUP2 LT ISZERO PUSH2 0x613 JUMPI DUP5 DUP10 ADD MLOAD DUP3 SSTORE PUSH1 0x1 DUP3 ADD SWAP2 POP PUSH1 0x20 DUP6 ADD SWAP5 POP PUSH1 0x20 DUP2 ADD SWAP1 POP PUSH2 0x5EE JUMP JUMPDEST DUP7 DUP4 LT ISZERO PUSH2 0x630 JUMPI DUP5 DUP10 ADD MLOAD PUSH2 0x62C PUSH1 0x1F DUP10 AND DUP3 PUSH2 0x53F JUMP JUMPDEST DUP4 SSTORE POP JUMPDEST PUSH1 0x1 PUSH1 0x2 DUP9 MUL ADD DUP9 SSTORE POP POP POP JUMPDEST POP POP POP POP POP POP JUMP JUMPDEST PUSH2 0xA74 DUP1 PUSH2 0x652 PUSH0 CODECOPY PUSH0 RETURN INVALID PUSH1 0x80 PUSH1 0x40 MSTORE CALLVALUE DUP1 ISZERO PUSH2 0xF JUMPI PUSH0 DUP1 REVERT JUMPDEST POP PUSH1 0x4 CALLDATASIZE LT PUSH2 0x55 JUMPI PUSH0 CALLDATALOAD PUSH1 0xE0 SHR DUP1 PUSH4 0x121B93F EQ PUSH2 0x59 JUMPI DUP1 PUSH4 0x13CF08B EQ PUSH2 0x75 JUMPI DUP1 PUSH4 0x9EEF43E EQ PUSH2 0xA6 JUMPI DUP1 PUSH4 0xC7F758A8 EQ PUSH2 0xD6 JUMPI DUP1 PUSH4 0xCCEB68F5 EQ PUSH2 0x107 JUMPI JUMPDEST PUSH0 DUP1 REVERT JUMPDEST PUSH2 0x73 PUSH1 0x4 DUP1 CALLDATASIZE SUB DUP2 ADD SWAP1 PUSH2 0x6E SWAP2 SWAP1 PUSH2 0x588 JUMP JUMPDEST PUSH2 0x125 JUMP JUMPDEST STOP JUMPDEST PUSH2 0x8F PUSH1 0x4 DUP1 CALLDATASIZE SUB DUP2 ADD SWAP1 PUSH2 0x8A SWAP2 SWAP1 PUSH2 0x588 JUMP JUMPDEST PUSH2 0x285 JUMP JUMPDEST PUSH1 0x40 MLOAD PUSH2 0x9D SWAP3 SWAP2 SWAP1 PUSH2 0x632 JUMP JUMPDEST PUSH1 0x40 MLOAD DUP1 SWAP2 SUB SWAP1 RETURN JUMPDEST PUSH2 0xC0 PUSH1 0x4 DUP1 CALLDATASIZE SUB DUP2 ADD SWAP1 PUSH2 0xBB SWAP2 SWAP1 PUSH2 0x6BA JUMP JUMPDEST PUSH2 0x339 JUMP JUMPDEST PUSH1 0x40 MLOAD PUSH2 0xCD SWAP2 SWAP1 PUSH2 0x6FF JUMP JUMPDEST PUSH1 0x40 MLOAD DUP1 SWAP2 SUB SWAP1 RETURN JUMPDEST PUSH2 0xF0 PUSH1 0x4 DUP1 CALLDATASIZE SUB DUP2 ADD SWAP1 PUSH2 0xEB SWAP2 SWAP1 PUSH2 0x588 JUMP JUMPDEST PUSH2 0x356 JUMP JUMPDEST PUSH1 0x40 MLOAD PUSH2 0xFE SWAP3 SWAP2 SWAP1 PUSH2 0x632 JUMP JUMPDEST PUSH1 0x40 MLOAD DUP1 SWAP2 SUB SWAP1 RETURN JUMPDEST PUSH2 0x10F PUSH2 0x45D JUMP JUMPDEST PUSH1 0x40 MLOAD PUSH2 0x11C SWAP2 SWAP1 PUSH2 0x864 JUMP JUMPDEST PUSH1 0x40 MLOAD DUP1 SWAP2 SUB SWAP1 RETURN JUMPDEST PUSH1 0x1 PUSH0 CALLER PUSH20 0xFFFFFFFFFFFFFFFFFFFFFFFFFFFFFFFFFFFFFFFF AND PUSH20 0xFFFFFFFFFFFFFFFFFFFFFFFFFFFFFFFFFFFFFFFF AND DUP2 MSTORE PUSH1 0x20 ADD SWAP1 DUP2 MSTORE PUSH1 0x20 ADD PUSH0 KECCAK256 PUSH0 SWAP1 SLOAD SWAP1 PUSH2 0x100 EXP SWAP1 DIV PUSH1 0xFF AND ISZERO PUSH2 0x1AF JUMPI PUSH1 0x40 MLOAD PUSH32 0x8C379A000000000000000000000000000000000000000000000000000000000 DUP2 MSTORE PUSH1 0x4 ADD PUSH2 0x1A6 SWAP1 PUSH2 0x8CE JUMP JUMPDEST PUSH1 0x40 MLOAD DUP1 SWAP2 SUB SWAP1 REVERT JUMPDEST PUSH0 DUP1 SLOAD SWAP1 POP DUP2 LT PUSH2 0x1F5 JUMPI PUSH1 0x40 MLOAD PUSH32 0x8C379A000000000000000000000000000000000000000000000000000000000 DUP2 MSTORE PUSH1 0x4 ADD PUSH2 0x1EC SWAP1 PUSH2 0x936 JUMP JUMPDEST PUSH1 0x40 MLOAD DUP1 SWAP2 SUB SWAP1 REVERT JUMPDEST PUSH1 0x1 PUSH0 DUP3 DUP2 SLOAD DUP2 LT PUSH2 0x20A JUMPI PUSH2 0x209 PUSH2 0x954 JUMP JUMPDEST JUMPDEST SWAP1 PUSH0 MSTORE PUSH1 0x20 PUSH0 KECCAK256 SWAP1 PUSH1 0x2 MUL ADD PUSH1 0x1 ADD PUSH0 DUP3 DUP3 SLOAD PUSH2 0x227 SWAP2 SWAP1 PUSH2 0x9AE JUMP JUMPDEST SWAP3 POP POP DUP2 SWAP1 SSTORE POP PUSH1 0x1 DUP1 PUSH0 CALLER PUSH20 0xFFFFFFFFFFFFFFFFFFFFFFFFFFFFFFFFFFFFFFFF AND PUSH20 0xFFFFFFFFFFFFFFFFFFFFFFFFFFFFFFFFFFFFFFFF AND DUP2 MSTORE PUSH1 0x20 ADD SWAP1 DUP2 MSTORE PUSH1 0x20 ADD PUSH0 KECCAK256 PUSH0 PUSH2 0x100 EXP DUP2 SLOAD DUP2 PUSH1 0xFF MUL NOT AND SWAP1 DUP4 ISZERO ISZERO MUL OR SWAP1 SSTORE POP POP JUMP JUMPDEST PUSH0 DUP2 DUP2 SLOAD DUP2 LT PUSH2 0x293 JUMPI PUSH0 DUP1 REVERT JUMPDEST SWAP1 PUSH0 MSTORE PUSH1 0x20 PUSH0 KECCAK256 SWAP1 PUSH1 0x2 MUL ADD PUSH0 SWAP2 POP SWAP1 POP DUP1 PUSH0 ADD DUP1 SLOAD PUSH2 0x2B2 SWAP1 PUSH2 0xA0E JUMP JUMPDEST DUP1 PUSH1 0x1F ADD PUSH1 0x20 DUP1 SWAP2 DIV MUL PUSH1 0x20 ADD PUSH1 0x40 MLOAD SWAP1 DUP2 ADD PUSH1 0x40 MSTORE DUP1 SWAP3 SWAP2 SWAP1 DUP2 DUP2 MSTORE PUSH1 0x20 ADD DUP3 DUP1 SLOAD PUSH2 0x2DE SWAP1 PUSH2 0xA0E JUMP JUMPDEST DUP1 ISZERO PUSH2 0x329 JUMPI DUP1 PUSH1 0x1F LT PUSH2 0x300 JUMPI PUSH2 0x100 DUP1 DUP4 SLOAD DIV MUL DUP4 MSTORE SWAP2 PUSH1 0x20 ADD SWAP2 PUSH2 0x329 JUMP JUMPDEST DUP3 ADD SWAP2 SWAP1 PUSH0 MSTORE PUSH1 0x20 PUSH0 KECCAK256 SWAP1 JUMPDEST DUP2 SLOAD DUP2 MSTORE SWAP1 PUSH1 0x1 ADD SWAP1 PUSH1 0x20 ADD DUP1 DUP4 GT PUSH2 0x30C JUMPI DUP3 SWAP1 SUB PUSH1 0x1F AND DUP3 ADD SWAP2 JUMPDEST POP POP POP POP POP SWAP1 DUP1 PUSH1 0x1 ADD SLOAD SWAP1 POP DUP3 JUMP JUMPDEST PUSH1 0x1 PUSH1 0x20 MSTORE DUP1 PUSH0 MSTORE PUSH1 0x40 PUSH0 KECCAK256 PUSH0 SWAP2 POP SLOAD SWAP1 PUSH2 0x100 EXP SWAP1 DIV PUSH1 0xFF AND DUP2 JUMP JUMPDEST PUSH1 0x60 PUSH0 DUP1 DUP1 SLOAD SWAP1 POP DUP4 LT PUSH2 0x39F JUMPI PUSH1 0x40 MLOAD PUSH32 0x8C379A000000000000000000000000000000000000000000000000000000000 DUP2 MSTORE PUSH1 0x4 ADD PUSH2 0x396 SWAP1 PUSH2 0x936 JUMP JUMPDEST PUSH1 0x40 MLOAD DUP1 SWAP2 SUB SWAP1 REVERT JUMPDEST PUSH0 DUP1 DUP5 DUP2 SLOAD DUP2 LT PUSH2 0x3B3 JUMPI PUSH2 0x3B2 PUSH2 0x954 JUMP JUMPDEST JUMPDEST SWAP1 PUSH0 MSTORE PUSH1 0x20 PUSH0 KECCAK256 SWAP1 PUSH1 0x2 MUL ADD SWAP1 POP DUP1 PUSH0 ADD DUP2 PUSH1 0x1 ADD SLOAD DUP2 DUP1 SLOAD PUSH2 0x3D5 SWAP1 PUSH2 0xA0E JUMP JUMPDEST DUP1 PUSH1 0x1F ADD PUSH1 0x20 DUP1 SWAP2 DIV MUL PUSH1 0x20 ADD PUSH1 0x40 MLOAD SWAP1 DUP2 ADD PUSH1 0x40 MSTORE DUP1 SWAP3 SWAP2 SWAP1 DUP2 DUP2 MSTORE PUSH1 0x20 ADD DUP3 DUP1 SLOAD PUSH2 0x401 SWAP1 PUSH2 0xA0E JUMP JUMPDEST DUP1 ISZERO PUSH2 0x44C JUMPI DUP1 PUSH1 0x1F LT PUSH2 0x423 JUMPI PUSH2 0x100 DUP1 DUP4 SLOAD DIV MUL DUP4 MSTORE SWAP2 PUSH1 0x20 ADD SWAP2 PUSH2 0x44C JUMP JUMPDEST DUP3 ADD SWAP2 SWAP1 PUSH0 MSTORE PUSH1 0x20 PUSH0 KECCAK256 SWAP1 JUMPDEST DUP2 SLOAD DUP2 MSTORE SWAP1 PUSH1 0x1 ADD SWAP1 PUSH1 0x20 ADD DUP1 DUP4 GT PUSH2 0x42F JUMPI DUP3 SWAP1 SUB PUSH1 0x1F AND DUP3 ADD SWAP2 JUMPDEST POP POP POP POP POP SWAP2 POP SWAP3 POP SWAP3 POP POP SWAP2 POP SWAP2 JUMP JUMPDEST PUSH1 0x60 PUSH0 DUP1 SLOAD DUP1 PUSH1 0x20 MUL PUSH1 0x20 ADD PUSH1 0x40 MLOAD SWAP1 DUP2 ADD PUSH1 0x40 MSTORE DUP1 SWAP3 SWAP2 SWAP1 DUP2 DUP2 MSTORE PUSH1 0x20 ADD PUSH0 SWAP1 JUMPDEST DUP3 DUP3 LT ISZERO PUSH2 0x548 JUMPI DUP4 DUP3 SWAP1 PUSH0 MSTORE PUSH1 0x20 PUSH0 KECCAK256 SWAP1 PUSH1 0x2 MUL ADD PUSH1 0x40 MLOAD DUP1 PUSH1 0x40 ADD PUSH1 0x40 MSTORE SWAP1 DUP2 PUSH0 DUP3 ADD DUP1 SLOAD PUSH2 0x4AF SWAP1 PUSH2 0xA0E JUMP JUMPDEST DUP1 PUSH1 0x1F ADD PUSH1 0x20 DUP1 SWAP2 DIV MUL PUSH1 0x20 ADD PUSH1 0x40 MLOAD SWAP1 DUP2 ADD PUSH1 0x40 MSTORE DUP1 SWAP3 SWAP2 SWAP1 DUP2 DUP2 MSTORE PUSH1 0x20 ADD DUP3 DUP1 SLOAD PUSH2 0x4DB SWAP1 PUSH2 0xA0E JUMP JUMPDEST DUP1 ISZERO PUSH2 0x526 JUMPI DUP1 PUSH1 0x1F LT PUSH2 0x4FD JUMPI PUSH2 0x100 DUP1 DUP4 SLOAD DIV MUL DUP4 MSTORE SWAP2 PUSH1 0x20 ADD SWAP2 PUSH2 0x526 JUMP JUMPDEST DUP3 ADD SWAP2 SWAP1 PUSH0 MSTORE PUSH1 0x20 PUSH0 KECCAK256 SWAP1 JUMPDEST DUP2 SLOAD DUP2 MSTORE SWAP1 PUSH1 0x1 ADD SWAP1 PUSH1 0x20 ADD DUP1 DUP4 GT PUSH2 0x509 JUMPI DUP3 SWAP1 SUB PUSH1 0x1F AND DUP3 ADD SWAP2 JUMPDEST POP POP POP POP POP DUP2 MSTORE PUSH1 0x20 ADD PUSH1 0x1 DUP3 ADD SLOAD DUP2 MSTORE POP POP DUP2 MSTORE PUSH1 0x20 ADD SWAP1 PUSH1 0x1 ADD SWAP1 PUSH2 0x47F JUMP JUMPDEST POP POP POP POP SWAP1 POP SWAP1 JUMP JUMPDEST PUSH0 DUP1 REVERT JUMPDEST PUSH0 DUP2 SWAP1 POP SWAP2 SWAP1 POP JUMP JUMPDEST PUSH2 0x567 DUP2 PUSH2 0x555 JUMP JUMPDEST DUP2 EQ PUSH2 0x571 JUMPI PUSH0 DUP1 REVERT JUMPDEST POP JUMP JUMPDEST PUSH0 DUP2 CALLDATALOAD SWAP1 POP PUSH2 0x582 DUP2 PUSH2 0x55E JUMP JUMPDEST SWAP3 SWAP2 POP POP JUMP JUMPDEST PUSH0 PUSH1 0x20 DUP3 DUP5 SUB SLT ISZERO PUSH2 0x59D JUMPI PUSH2 0x59C PUSH2 0x551 JUMP JUMPDEST JUMPDEST PUSH0 PUSH2 0x5AA DUP5 DUP3 DUP6 ADD PUSH2 0x574 JUMP JUMPDEST SWAP2 POP POP SWAP3 SWAP2 POP POP JUMP JUMPDEST PUSH0 DUP2 MLOAD SWAP1 POP SWAP2 SWAP1 POP JUMP JUMPDEST PUSH0 DUP3 DUP3 MSTORE PUSH1 0x20 DUP3 ADD SWAP1 POP SWAP3 SWAP2 POP POP JUMP JUMPDEST DUP3 DUP2 DUP4 MCOPY PUSH0 DUP4 DUP4 ADD MSTORE POP POP POP JUMP JUMPDEST PUSH0 PUSH1 0x1F NOT PUSH1 0x1F DUP4 ADD AND SWAP1 POP SWAP2 SWAP1 POP JUMP JUMPDEST PUSH0 PUSH2 0x5F5 DUP3 PUSH2 0x5B3 JUMP JUMPDEST PUSH2 0x5FF DUP2 DUP6 PUSH2 0x5BD JUMP JUMPDEST SWAP4 POP PUSH2 0x60F DUP2 DUP6 PUSH1 0x20 DUP7 ADD PUSH2 0x5CD JUMP JUMPDEST PUSH2 0x618 DUP2 PUSH2 0x5DB JUMP JUMPDEST DUP5 ADD SWAP2 POP POP SWAP3 SWAP2 POP POP JUMP JUMPDEST PUSH2 0x62C DUP2 PUSH2 0x555 JUMP JUMPDEST DUP3 MSTORE POP POP JUMP JUMPDEST PUSH0 PUSH1 0x40 DUP3 ADD SWAP1 POP DUP2 DUP2 SUB PUSH0 DUP4 ADD MSTORE PUSH2 0x64A DUP2 DUP6 PUSH2 0x5EB JUMP JUMPDEST SWAP1 POP PUSH2 0x659 PUSH1 0x20 DUP4 ADD DUP5 PUSH2 0x623 JUMP JUMPDEST SWAP4 SWAP3 POP POP POP JUMP JUMPDEST PUSH0 PUSH20 0xFFFFFFFFFFFFFFFFFFFFFFFFFFFFFFFFFFFFFFFF DUP3 AND SWAP1 POP SWAP2 SWAP1 POP JUMP JUMPDEST PUSH0 PUSH2 0x689 DUP3 PUSH2 0x660 JUMP JUMPDEST SWAP1 POP SWAP2 SWAP1 POP JUMP JUMPDEST PUSH2 0x699 DUP2 PUSH2 0x67F JUMP JUMPDEST DUP2 EQ PUSH2 0x6A3 JUMPI PUSH0 DUP1 REVERT JUMPDEST POP JUMP JUMPDEST PUSH0 DUP2 CALLDATALOAD SWAP1 POP PUSH2 0x6B4 DUP2 PUSH2 0x690 JUMP JUMPDEST SWAP3 SWAP2 POP POP JUMP JUMPDEST PUSH0 PUSH1 0x20 DUP3 DUP5 SUB SLT ISZERO PUSH2 0x6CF JUMPI PUSH2 0x6CE PUSH2 0x551 JUMP JUMPDEST JUMPDEST PUSH0 PUSH2 0x6DC DUP5 DUP3 DUP6 ADD PUSH2 0x6A6 JUMP JUMPDEST SWAP2 POP POP SWAP3 SWAP2 POP POP JUMP JUMPDEST PUSH0 DUP2 ISZERO ISZERO SWAP1 POP SWAP2 SWAP1 POP JUMP JUMPDEST PUSH2 0x6F9 DUP2 PUSH2 0x6E5 JUMP JUMPDEST DUP3 MSTORE POP POP JUMP JUMPDEST PUSH0 PUSH1 0x20 DUP3 ADD SWAP1 POP PUSH2 0x712 PUSH0 DUP4 ADD DUP5 PUSH2 0x6F0 JUMP JUMPDEST SWAP3 SWAP2 POP POP JUMP JUMPDEST PUSH0 DUP2 MLOAD SWAP1 POP SWAP2 SWAP1 POP JUMP JUMPDEST PUSH0 DUP3 DUP3 MSTORE PUSH1 0x20 DUP3 ADD SWAP1 POP SWAP3 SWAP2 POP POP JUMP JUMPDEST PUSH0 DUP2 SWAP1 POP PUSH1 0x20 DUP3 ADD SWAP1 POP SWAP2 SWAP1 POP JUMP JUMPDEST PUSH0 DUP3 DUP3 MSTORE PUSH1 0x20 DUP3 ADD SWAP1 POP SWAP3 SWAP2 POP POP JUMP JUMPDEST PUSH0 PUSH2 0x75B DUP3 PUSH2 0x5B3 JUMP JUMPDEST PUSH2 0x765 DUP2 DUP6 PUSH2 0x741 JUMP JUMPDEST SWAP4 POP PUSH2 0x775 DUP2 DUP6 PUSH1 0x20 DUP7 ADD PUSH2 0x5CD JUMP JUMPDEST PUSH2 0x77E DUP2 PUSH2 0x5DB JUMP JUMPDEST DUP5 ADD SWAP2 POP POP SWAP3 SWAP2 POP POP JUMP JUMPDEST PUSH2 0x792 DUP2 PUSH2 0x555 JUMP JUMPDEST DUP3 MSTORE POP POP JUMP JUMPDEST PUSH0 PUSH1 0x40 DUP4 ADD PUSH0 DUP4 ADD MLOAD DUP5 DUP3 SUB PUSH0 DUP7 ADD MSTORE PUSH2 0x7B2 DUP3 DUP3 PUSH2 0x751 JUMP JUMPDEST SWAP2 POP POP PUSH1 0x20 DUP4 ADD MLOAD PUSH2 0x7C7 PUSH1 0x20 DUP7 ADD DUP3 PUSH2 0x789 JUMP JUMPDEST POP DUP1 SWAP2 POP POP SWAP3 SWAP2 POP POP JUMP JUMPDEST PUSH0 PUSH2 0x7DD DUP4 DUP4 PUSH2 0x798 JUMP JUMPDEST SWAP1 POP SWAP3 SWAP2 POP POP JUMP JUMPDEST PUSH0 PUSH1 0x20 DUP3 ADD SWAP1 POP SWAP2 SWAP1 POP JUMP JUMPDEST PUSH0 PUSH2 0x7FB DUP3 PUSH2 0x718 JUMP JUMPDEST PUSH2 0x805 DUP2 DUP6 PUSH2 0x722 JUMP JUMPDEST SWAP4 POP DUP4 PUSH1 0x20 DUP3 MUL DUP6 ADD PUSH2 0x817 DUP6 PUSH2 0x732 JUMP JUMPDEST DUP1 PUSH0 JUMPDEST DUP6 DUP2 LT ISZERO PUSH2 0x852 JUMPI DUP5 DUP5 SUB DUP10 MSTORE DUP2 MLOAD PUSH2 0x833 DUP6 DUP3 PUSH2 0x7D2 JUMP JUMPDEST SWAP5 POP PUSH2 0x83E DUP4 PUSH2 0x7E5 JUMP JUMPDEST SWAP3 POP PUSH1 0x20 DUP11 ADD SWAP10 POP POP PUSH1 0x1 DUP2 ADD SWAP1 POP PUSH2 0x81A JUMP JUMPDEST POP DUP3 SWAP8 POP DUP8 SWAP6 POP POP POP POP POP POP SWAP3 SWAP2 POP POP JUMP JUMPDEST PUSH0 PUSH1 0x20 DUP3 ADD SWAP1 POP DUP2 DUP2 SUB PUSH0 DUP4 ADD MSTORE PUSH2 0x87C DUP2 DUP5 PUSH2 0x7F1 JUMP JUMPDEST SWAP1 POP SWAP3 SWAP2 POP POP JUMP JUMPDEST PUSH32 0x547520766F746F2079612066756520726563696269646F000000000000000000 PUSH0 DUP3 ADD MSTORE POP JUMP JUMPDEST PUSH0 PUSH2 0x8B8 PUSH1 0x17 DUP4 PUSH2 0x5BD JUMP JUMPDEST SWAP2 POP PUSH2 0x8C3 DUP3 PUSH2 0x884 JUMP JUMPDEST PUSH1 0x20 DUP3 ADD SWAP1 POP SWAP2 SWAP1 POP JUMP JUMPDEST PUSH0 PUSH1 0x20 DUP3 ADD SWAP1 POP DUP2 DUP2 SUB PUSH0 DUP4 ADD MSTORE PUSH2 0x8E5 DUP2 PUSH2 0x8AC JUMP JUMPDEST SWAP1 POP SWAP2 SWAP1 POP JUMP JUMPDEST PUSH32 0x4C61206F7063696F6E206E6F2065732076616C69646100000000000000000000 PUSH0 DUP3 ADD MSTORE POP JUMP JUMPDEST PUSH0 PUSH2 0x920 PUSH1 0x16 DUP4 PUSH2 0x5BD JUMP JUMPDEST SWAP2 POP PUSH2 0x92B DUP3 PUSH2 0x8EC JUMP JUMPDEST PUSH1 0x20 DUP3 ADD SWAP1 POP SWAP2 SWAP1 POP JUMP JUMPDEST PUSH0 PUSH1 0x20 DUP3 ADD SWAP1 POP DUP2 DUP2 SUB PUSH0 DUP4 ADD MSTORE PUSH2 0x94D DUP2 PUSH2 0x914 JUMP JUMPDEST SWAP1 POP SWAP2 SWAP1 POP JUMP JUMPDEST PUSH32 0x4E487B7100000000000000000000000000000000000000000000000000000000 PUSH0 MSTORE PUSH1 0x32 PUSH1 0x4 MSTORE PUSH1 0x24 PUSH0 REVERT JUMPDEST PUSH32 0x4E487B7100000000000000000000000000000000000000000000000000000000 PUSH0 MSTORE PUSH1 0x11 PUSH1 0x4 MSTORE PUSH1 0x24 PUSH0 REVERT JUMPDEST PUSH0 PUSH2 0x9B8 DUP3 PUSH2 0x555 JUMP JUMPDEST SWAP2 POP PUSH2 0x9C3 DUP4 PUSH2 0x555 JUMP JUMPDEST SWAP3 POP DUP3 DUP3 ADD SWAP1 POP DUP1 DUP3 GT ISZERO PUSH2 0x9DB JUMPI PUSH2 0x9DA PUSH2 0x981 JUMP JUMPDEST JUMPDEST SWAP3 SWAP2 POP POP JUMP JUMPDEST PUSH32 0x4E487B7100000000000000000000000000000000000000000000000000000000 PUSH0 MSTORE PUSH1 0x22 PUSH1 0x4 MSTORE PUSH1 0x24 PUSH0 REVERT JUMPDEST PUSH0 PUSH1 0x2 DUP3 DIV SWAP1 POP PUSH1 0x1 DUP3 AND DUP1 PUSH2 0xA25 JUMPI PUSH1 0x7F DUP3 AND SWAP2 POP JUMPDEST PUSH1 0x20 DUP3 LT DUP2 SUB PUSH2 0xA38 JUMPI PUSH2 0xA37 PUSH2 0x9E1 JUMP JUMPDEST JUMPDEST POP SWAP2 SWAP1 POP JUMP INVALID LOG2 PUSH5 0x6970667358 0x22 SLT KECCAK256 SWAP1 0xFC DUP10 0x4D SDIV PUSH27 0xEDAF04D09675B1B309050D8FA428194BB715391E00C1EFDA043E64 PUSH20 0x6F6C634300081A00330000000000000000000000 "
				},
				"gasEstimates": {
					"creation": {
						"codeDepositCost": "535200",
						"executionCost": "infinite",
						"totalCost": "infinite"
					},
					"external": {
						"getAllProposals()": "infinite",
						"getProposal(uint256)": "infinite",
						"hasVoted(address)": "2855",
						"proposals(uint256)": "infinite",
						"vote(uint256)": "infinite"
					}
				},
				"methodIdentifiers": {
					"getAllProposals()": "cceb68f5",
					"getProposal(uint256)": "c7f758a8",
					"hasVoted(address)": "09eef43e",
					"proposals(uint256)": "013cf08b",
					"vote(uint256)": "0121b93f"
				}
			},
			"storageLayout": {
				"storage": [
					{
						"astId": 10,
						"contract": "voting.sol:Voting",
						"label": "proposals",
						"offset": 0,
						"slot": "0",
						"type": "t_array(t_struct(Proposal)6_storage)dyn_storage"
					},
					{
						"astId": 14,
						"contract": "voting.sol:Voting",
						"label": "hasVoted",
						"offset": 0,
						"slot": "1",
						"type": "t_mapping(t_address,t_bool)"
					}
				],
				"types": {
					"t_address": {
						"encoding": "inplace",
						"label": "address",
						"numberOfBytes": "20"
					},
					"t_array(t_struct(Proposal)6_storage)dyn_storage": {
						"base": "t_struct(Proposal)6_storage",
						"encoding": "dynamic_array",
						"label": "struct Voting.Proposal[]",
						"numberOfBytes": "32"
					},
					"t_bool": {
						"encoding": "inplace",
						"label": "bool",
						"numberOfBytes": "1"
					},
					"t_mapping(t_address,t_bool)": {
						"encoding": "mapping",
						"key": "t_address",
						"label": "mapping(address => bool)",
						"numberOfBytes": "32",
						"value": "t_bool"
					},
					"t_string_storage": {
						"encoding": "bytes",
						"label": "string",
						"numberOfBytes": "32"
					},
					"t_struct(Proposal)6_storage": {
						"encoding": "inplace",
						"label": "struct Voting.Proposal",
						"members": [
							{
								"astId": 3,
								"contract": "voting.sol:Voting",
								"label": "description",
								"offset": 0,
								"slot": "0",
								"type": "t_string_storage"
							},
							{
								"astId": 5,
								"contract": "voting.sol:Voting",
								"label": "voteCount",
								"offset": 0,
								"slot": "1",
								"type": "t_uint256"
							}
						],
						"numberOfBytes": "64"
					},
					"t_uint256": {
						"encoding": "inplace",
						"label": "uint256",
						"numberOfBytes": "32"
					}
				}
			},
			"userdoc": {
				"kind": "user",
				"methods": {},
				"version": 1
			}
		}
	}
}